:020000040800F2
:10000000D09800201D0200084F140008611100085C
:100010004D14000801060008391600080000000011
:10002000000000000000000000000000E5150008CE
:100030000306000800000000E3150008E7150008AB
:1000400037020008370200083702000837020008AC
:10005000370200083702000837020008370200089C
:10006000370200083702000837020008370200088C
:10007000370200083702000837020008370200087C
:10008000370200083702000837020008370200086C
:10009000370200083702000837020008370200085C
:1000A000370200083702000837020008370200084C
:1000B000370200083702000837020008370200083C
:1000C000370200083702000837020008370200082C
:1000D000370200083702000837020008370200081C
:1000E000370200083702000837020008370200080C
:1000F00037020008370200083702000837020008FC
:1001000037020008370200083702000837020008EB
:1001100037020008370200083702000837020008DB
:1001200037020008370200083702000837020008CB
:1001300000F002F800F063F80AA090E8000C824496
:100140008344AAF10107DA4501D100F058F8AFF273
:10015000090EBAE80F0013F0010F18BFFB1A43F0A5
:100160000103184718470000384700000A444FF0C1
:10017000000C10F8013B13F0070408BF10F8014B06
:100180001D1108BF10F8015B641E05D010F8016B4B
:10019000641E01F8016BF9D113F0080F1EBF10F8AF
:1001A000014BAD1C0C1B09D16D1E58BF01F801CBD2
:1001B000FAD505E014F8016B01F8016B6D1EF9D555
:1001C0009142D6D37047000000230024002500266A
:1001D000103A28BF78C1FBD8520728BF30C148BFAA
:1001E0000B6070471FB59DE8030000F033F900F085
:1001F00095F81FBD10B5002002F0B9FE10BD00F04B
:100200005FF91146FFF7EEFF03F0F2FB00F097F9FC
:1002100003B4FFF7EFFF03BC00F09EF909488047E5
:1002200009480047FEE7FEE7FEE7FEE7FEE7FEE7D8
:10023000FEE7FEE7FEE7FEE704480549054A064BF0
:10024000704700003716000831010008D08C0020EC
:10025000D0980020D0940020D094002070B5A0FB4E
:100260000140B4F1805170F1000024BF002070BD46
:10027000204600F069F805001CBF214600F002F896
:10028000284670BD4FF000020429C0F0128010F023
:10029000030C00F01B80CCF1040CBCF1020F18BF62
:1002A00000F8012BA8BF20F8022BA1EB0C0100F0F5
:1002B0000DB85FEAC17C24BF00F8012B00F8012BC8
:1002C00048BF00F8012B70474FF0000200B51346FD
:1002D00094469646203922BFA0E80C50A0E80C5066
:1002E000B1F12001BFF4F7AF090728BFA0E80C5017
:1002F00048BF0CC05DF804EB890028BF40F8042B10
:1003000008BF704748BF20F8022B11F0804F18BF7C
:1003100000F8012B704770477047704770B5064C66
:100320007C44064D7D4403E0206820448047241D22
:10033000AC42F9D170BD000078450000784500005E
:1003400000487047A88C002070B5064600F062F89F
:10035000056806F10B0020F00704B4429CBF0020A2
:1003600070BD2B466A68BAB11068A04210D304F180
:10037000080188423CBF5068586007D35168101983
:1003800041601168091B016058601460101D70BD48
:1003900013465268002AE7D12146284600F046F865
:1003A0000028DED170BD70B50446051F00F032F89C
:1003B0000068002C14BF446870BD002C18BFAC420C
:1003C0003CBF20466468F8D301680A18AA4218BFE7
:1003D000456003D12A680546114401602868411927
:1003E000A1421CBF6C6070BD6168696021680844EF
:1003F000286070BD10B500F011F8006810BD10B590
:10040000044600F00BF8046010BD0000004870477F
:10041000708C002000487047788C0020004870479E
:10042000708C0020704770477047704738B504469D
:100430000A4600206946AFF30080002808BF38BD97
:1004400002460099204600F060F8012038BD0120E6
:1004500000F07BB8F8B5AFF30080054600200C46ED
:10046000102000BF0646A819A0420DD932466946A1
:100470000020AFF30080070008BF00F066F8009886
:10048000A04218BF0546C419FFF7C4FF0560074620
:10049000F01D20F007004619284600F00AF8B44283
:1004A00008BFF8BDA21B31463868BDE8F84000F02F
:1004B0002CB800210160C0E901107047102070477E
:1004C0007546FFF7A3FFAE4605006946534620F088
:1004D0000700854618B020B5FFF7AEFEBDE8204006
:1004E0004FF000064FF000074FF000084FF0000BF0
:1004F00021F00701AC46ACE8C009ACE8C009ACE8A3
:10050000C009ACE8C0098D467047034640688C4678
:10051000002818BF88423CBF03464068F8D31868DB
:100520001844884207D00CF1030020F00700001D9A
:10053000411A521A0146081D0A60FFF734BF0446EB
:10054000AFF300802046FFF763FE10B500F010F80F
:10055000BDE8104000F007B801491820ABBEFEE727
:10056000260002007047002801D0FFF7F5BF704752
:1005700010B5012805D0002103A000F021F80120CA
:1005800010BD09A1F8E7000053494752544D454DAD
:100590003A204F7574206F662068656170206D6524
:1005A0006D6F7279000000003A2048656170206D1F
:1005B000656D6F727920636F727275707465640017
:1005C00070B505460C460A2000E06D1C00F011F8DD
:1005D00035B128780028F8D102E0641C00F009F851
:1005E00014B120780028F8D1BDE870400A20AFF39C
:1005F000008008B569468DF800000320ABBE08BD39
:10060000FEE770477047000070B5044600F00AF935
:100610000546601C02D004480078044400F002F94A
:10062000401BA042FAD370BDDC0400202DE9F84F36
:10063000DFF8C891002409F1040A0AF1040B2346EB
:100640000F270BF1040ED1E00125A54006EA0502B3
:10065000AA4276D1DFF8A8C14E68A6EB0C08664521
:100660002BD00DDC032E34D005DC36B3012E19D08F
:10067000022E2FD11BE0112E16D0122E2AD119E0F6
:10068000B8F5881F19D006DCB8F5803F15D0B8F54D
:10069000801F1FD111E0B8F5001F0ED0B8F5041F60
:1006A00018D10AE0CB6815E0CB681B1D12E0CB68BF
:1006B00008330FE0CB680C330CE08B682BB1012BB7
:1006C0004FF0080303D0456104E0042302E0056114
:1006D00000E00023FF2A01D8064601E000F10406ED
:1006E0004FEA840501D9A5F12005D6F8008007FA64
:1006F00005FC28EA0C0803FA05F548EA0508C6F8DF
:1007000000804D68ED0070D53E4DAE6946F00106A3
:10071000AE61AD6924F0030605F0010500953A4D80
:1007200006EB050CDCF80850A607360F07FA06F8AA
:1007300025EA0805DFF8D480404503D14FF00008D2
:1007400025E052E0DFF8C880404502D14FF00108B3
:100750001DE0DFF8C080404502D14FF0020816E0EE
:10076000DFF8B480404502D14FF003080FE0DFF816
:10077000AC80404502D14FF0040808E0DFF8A080CB
:10078000404502D14FF0050801E04FF0060808FA95
:1007900006F848EA0508CCF808804D68D9F80060EA
:1007A000ED034D4601D5164300E096432E604D689B
:1007B000DAF80060AD03554601D5164300E09643D4
:1007C0002E604D68DBF80060ED025D4601D51643F2
:1007D00000E096432E604D68DEF80060AD0275467D
:1007E00001D5164300E096432E60641C0A68164645
:1007F000E2407FF429AFBDE8F88F0000000401401B
:1008000000001110001002400000014000080140EB
:10081000000C01400010014000140140001801408C
:10082000001C01400148806870470000DC04002083
:1008300070B5040025D094F83D00002520B984F857
:100840003C50204600F050F9242084F83D002068F8
:10085000016821F0010101602068016841F4004154
:1008600001602068016821F40041016000F08AFA0B
:100870004D4A6168914201D84C4900E04C49884298
:1008800001D2012070BD4B492368B0FBF1F15E68D5
:1008900026F03F060E435E606368934206D94FF42C
:1008A000967359434FF47A73B1FBF3F12368491CF3
:1008B0001E6A26F03F06314319626168914210D8E2
:1008C0004900401EB0FBF1F2521CC2F30B02042A95
:1008D00001D2042022E0B0FBF1F0401CC0F30B0079
:1008E0001CE0A268F2B301EBC10303EB0116431E47
:1008F000B3FBF6F35B1C43F480431B0549D092B372
:1009000001EBC10202EB0111401EB0FBF1F0401CF3
:10091000C0F30B0040F4804040F400402168CA69F5
:100920004CF6FF739A431043C861D4E907100143A2
:100930002068026822F0C00211430160D4E903017B
:1009400001432068826848F2FF339A431143816073
:10095000D4E9050108432168CA6822F0FF02104368
:10096000C86001E00EE016E02068016841F0010176
:1009700001602564202084F83D00256384F83E5002
:10098000002070BD01EB4106431EB3FBF6F35B1C78
:10099000B3E70120C2E701EB4101401EB0FBF1F0DB
:1009A000401CC0F30B00B7E7A086010080841E0046
:1009B00000093D0040420F002DE9FF4F83B09A46E9
:1009C000DDE9119793460446DDF84080FFF72AFFE2
:1009D000054694F83D0020287FD119230122404983
:1009E0002046009500F04EFC002876D194F83C009B
:1009F000012872D0012084F83C0020680168C907F2
:100A000003D1016841F0010101602068016821F40F
:100A100000610160212084F83D00402084F83E0000
:100A200000262664C4F82480A4F82A90608D2085CE
:100A30002C48E062CDE9007553465A462046049999
:100A400000F0A6FB70B930E02A463946204600F097
:100A500098FC58B1206C042804D12068016841F446
:100A600000710160012007B0BDE8F08F606A216865
:100A700000780861606A401C6062218D491E89B25D
:100A80002185628D521E628522685369DB435B07B4
:100A90000BD469B100781061606A401C6062208DDF
:100AA000401E2085608D401E6085208D0028CBD1A2
:100AB0002A463946204600F0BFFB0028CAD154F828
:100AC0003D0B016841F400710160202004F81E090B
:100AD000E67766770020C6E7FFE70220C3E700005D
:100AE000020010000000FFFF10B586B00021009149
:100AF00001910291039100680F4988421AD10F4C6D
:100B0000A06940F00800A061A069694600F00800F3
:100B10000490C02000901220019003200390084808
:100B2000FFF784FDE06940F40010E061E06900F443
:100B30000010049006B010BD0054004000100240A8
:100B4000000C0140024881680278114481607047BE
:100B5000DC040020074810B5016841F01001016075
:100B6000032000F067F8002000F006F800F024F8F9
:100B7000002010BD0020024070B50D4D04464FF41A
:100B80007A712878B1FBF0F00A490968B1FBF0F0FE
:100B900000F0D2FA48B9102C07D200222146501E8C
:100BA00000F028F800206C6070BD012070BD0000CE
:100BB000DC040020E80400200C4808B5816941F0FD
:100BC00001018161816901F001010091C16941F078
:100BD0008051C161C06900F08050009004484168B4
:100BE00021F0E06141F00071416008BD0010024059
:100BF00000000140F0B40E4B1B680C46C3F3022307
:100C0000C3F10705042D00D90425191D072901D2B8
:100C1000002300E0DB1E012606FA05F1491E2140F3
:100C200099409E40761E16403143F0BC02F064B9F4
:100C30000CED00E0064900F0070208684FF6FF03DC
:100C4000184040EA0220034A104308607047000041
:100C50000CED00E00000FA052DE9F0470F46050015
:100C600061D0434E306800F00700B84209D23068C6
:100C700020F0070038433060306800F00700B842C9
:100C800051D128683B4C810712D5400703D56068D5
:100C900040F4E06060602878000703D5606840F4A5
:100CA000605060606068A96820F0F00008436060F0
:100CB0002878C00728D06868012810D02168022849
:100CC00010D0890700292EDA616821F00301014361
:100CD0006160FFF7A7FD804641F288390DE0216889
:100CE0008903EFE78901EDE7FFF79CFDA0EB080121
:100CF000494502D90320BDE8F0876068696800F0C3
:100D00000C00B0EB810FEFD1306800F00700B84263
:100D10000BD9306820F0070038433060306800F0AD
:100D20000700B84201D00120E5E72878400705D543
:100D30006068E96820F4E060084360602878000794
:100D400006D56068296920F4605040EAC1006060FF
:100D500000F028F86168084AC1F30311515CC840EB
:100D60000649086006480068FFF706FF0020C2E752
:100D700000200240001002406C450008E8040020FA
:100D8000E00400200448054900684968044AC1F3AA
:100D90000221515CC8407047E80400200010024066
:100DA0007C45000813A185B00FC98DE80F0015A080
:100DB000154A00680490516801F00C00042804D022
:100DC000082804D0114805B070471148FBE7C1F36B
:100DD0008343C9031DF8030009D5516804AAC1F370
:100DE0004041515C0A4A5043B0FBF1F0EBE709493E
:100DF0004843E8E702030405060708090A0B0C0D3F
:100E00000E0F1010010200000010024000127A00C4
:100E1000001BB70000093D002DE9F84F040070D019
:100E20002078C04DC00749D06868C0F38100012810
:100E300007D06868C0F38100022809D16868C00340
:100E400006D52868800339D560680028E7D035E0EA
:100E50006068B0F5803F0BD010B1B0F5A02F11D075
:100E6000286820F480302860286820F4802002E080
:100E7000286840F480302860606890B1FFF7D2FCA9
:100E800006460AE0286840F480202860F0E700BFAA
:100E9000FFF7C8FC801B642873D828688003F7D547
:100EA0000CE0FFF7BFFC064605E000BFFFF7BAFC09
:100EB000801B6428F0D828688003F7D420789A4EE5
:100EC00080074FF001094FF0000839D5686810F02D
:100ED0000C0F07D06868C0F38100022809D1686848
:100EE000C00306D42868800714D52069012808D1DA
:100EF00010E02069B0B1C6F80090FFF793FC0746F8
:100F000005E00AE1FFF78EFCC01B0228C4D8286860
:100F10008007F7D52868616920F0F80040EAC10031
:100F200028600DE0C6F80080FFF77CFC074604E06F
:100F3000FFF778FCC01B022823D828688007F7D465
:100F4000207800072CD57948A169D9B1C0F8009064
:100F5000FFF768FC074604E0FFF764FCC01B0228AB
:100F60000FD8686A8007F7D571484FF4FA510068C6
:100F7000B0FBF1F0009000BF0098411E0091FAD242
:100F80000EE080E0C0F80080FFF74CFC074604E06C
:100F9000FFF748FCC01B022875D8686A8007F7D4A1
:100FA0002078400760D5E8690027C00008D4E869C8
:100FB00040F08050E861E869012700F0805000901F
:100FC0005C480168C90513D40168834641F4807107
:100FD0000160FFF727FC824606E000BFFFF722FC16
:100FE000A0EB0A0064284ED8DBF80000C005F5D558
:100FF000E06801280AD008B1052813D0286A20F03B
:1010000001002862286A20F0040002E0286A40F00B
:1010100001002862E06841F2883B98B1FFF702FCCA
:1010200082460BE0286A40F004002862EEE700BF29
:10103000FFF7F8FBA0EB0A0159455AD8286A800748
:10104000F6D50CE0FFF7EEFB824605E0FFF7EAFB82
:10105000A0EB0A0159454CD8286A8007F6D41FB185
:10106000E86920F08050E861E06988B36968C1F3FD
:101070008101022944D00228C6F8608004D0FFF71D
:10108000D1FB044638E034E0FFF7CCFB074604E030
:10109000FFF7C8FBC01B02282BD828688001F7D4B3
:1010A000206AB0F5803F05D16868A16820F400305F
:1010B00008436860D4E908010843696821F47411A1
:1010C00008436860C6F86090FFF7ACFB044606E092
:1010D00025E000BFFFF7A6FB001B022809D82868FF
:1010E0008001F7D51BE000BFFFF79CFB001B022827
:1010F00002D90320BDE8F88F28688001F4D40EE0FF
:101100000128F7D06868226A00F48031914204D146
:10111000616A00F47010884201D00120EAE70020E3
:10112000E8E7000000100240000042428004424212
:10113000E80400200070004010B5401EB0F1807F30
:1011400001D3012010BD4FF0E02460610F21601732
:1011500001F0D2FE0020A06107202061002010BD18
:10116000FEE701684A69D24352050FD46FF48062EA
:101170004A61002140F8301F2022427381730269C6
:1011800042F00402026101730120704700207047A1
:101190002DE9F843044600680D46DDE9089701682B
:1011A0009846164641F4807101604B4600224FF08C
:1011B00001112046009700F065F848B120680068EA
:1011C000C00502D54FF4007020640320BDE8F88309
:1011D000216805F0FE0008613B464A461549204655
:1011E00000F084F888B920684169806900903A4627
:1011F0004946204600F0C5F848B1206C042804D1C7
:101200002068016841F4007101600120DEE7F5B259
:10121000B8F1010F09D02168300A08613A46494601
:10122000204600F0AEF80028E7D1206805610020D4
:10123000CCE700000200010070B516460D460446DA
:101240000DE02046FFF78DFF08B1012070BD681C3E
:1012500005D0FFF7E7FA801BA84207D835B1206810
:101260004069C0434007ECD4002070BD002044F822
:10127000300F20216173A073216941F020012161A9
:101280002073E2E72DE9F0471E4690460D460446DE
:10129000C1F30747DDF8209008E0701C06D0FFF787
:1012A000C1FAA0EB0900B0420FD876B12068012F37
:1012B00018D0806925EA00000004000C14D0002139
:1012C0004145EAD00020BDE8F087002044F8300F07
:1012D00020216173A073216941F0200121612073F5
:1012E0000120F0E74069E5E70121E9E72DE9F04752
:1012F0009A4691460E46044600254FF02008C1F359
:10130000074725E020684069C043400514D42068A1
:10131000016841F40071016021686FF480604861E8
:10132000256384F83D8084F83E50206C40F0040032
:10133000206484F83C501FE0B9F1FF3F08D0FFF76C
:1013400071FAA0EB0A0149450CD8B9F1000F09D098
:101350002068012F13D0806926EA00000004000CE9
:101360000BD0CFE744F8305F84F80D80A573206977
:1013700040F02000206125730120BDE8F08740691E
:10138000EAE770B516460D4604460DE02046FFF725
:10139000E8FE08B1012070BD681C05D0FFF742FAD5
:1013A000801BA84207D835B120684069C0430006B9
:1013B000ECD4002070BD002044F8300F2021617370
:1013C000A073216941F0200121612073E2E7000050
:1013D0000D4808B5816941F020018161816901F002
:1013E00020010091816941F004018161816901F06E
:1013F00004010091816941F008018161806900F078
:101400000800009008BD0000001002400D4810B513
:101410000B4901600C49416000214FF4804281601A
:10142000C0E9031241618161C1610162FFF700FA05
:10143000002803D0BDE81040FFF7E4B810BD00005D
:10144000005400401C8C0020A0860100FEE770477D
:1014500030B40021084B0A465FF0000003EBC004E3
:10146000401CC0B262548028F8D3491CC9B2082974
:10147000F2D330BC00F08AB8EC05002010B57F280C
:1014800016D83F2914D80723A3EBD10301F0070195
:10149000C1F107040121A140064CDBB204EBC000FE
:1014A000002AC25CC9B201D00A4300E08A43C25498
:1014B00010BD0000EC05002010B50021AE2000F0AA
:1014C0008BF80021D52000F087F80021502000F093
:1014D00083F80021A82000F07FF800213F2000F0D1
:1014E0007BF80021D32000F077F80021084600F0B7
:1014F00073F80021402000F06FF800218D2000F0EB
:101500006BF80021142000F067F80021202000F083
:1015100063F80021022000F05FF80021A12000F014
:101520005BF80021C02000F057F80021DA2000F01D
:1015300053F80021122000F04FF80021812000F024
:101540004BF80021EF2000F047F80021D92000F0EF
:1015500043F80021F12000F03FF80021DB2000F0EB
:101560003BF80021302000F037F80021A42000F0E3
:1015700033F80021A62000F02FF80021AF2000F062
:101580002BF8BDE81040FFF763BF000070B5114EA7
:10159000002400BF04F1B000C0B2002100F01CF82C
:1015A0000021084600F018F80021102000F014F87F
:1015B0005FF0000506EBC5000121005D00F00CF8AE
:1015C0006D1CEDB2802DF5D3641CE4B2082CE1D380
:1015D00070BD0000EC05002009B100F041B800F03A
:1015E0002DB870477047FFF7ADBA30B58FB02821DE
:1015F0006846FEF769FE14210AA8FEF765FE012180
:101600000804CDE900100024029402250491CDE9DC
:101610000750000109906846FFF7FEFB0F20CDE957
:101620000A056802CDE90C4002210AA80E94FFF7D2
:1016300013FB0FB030BD7047FEE7000001B584B06A
:10164000012104A864228DE807000B4600227821BE
:101650000248FFF7B1F905B000BD00001C8C002066
:1016600001B584B0012104A864228DE807000B466F
:10167000402278210248FFF79FF905B000BD000025
:101680001C8C00202DE9FF4F8FB00025DDE91C04E4
:10169000AA46AB46B0F5B47F50D000249D4E02F070
:1016A0005CFC079105903FE09B4A9C4B20463146ED
:1016B00002F0BAFC81460A9102F044F907468B46D3
:1016C000119802F04AFC80465B463A46009102F0CF
:1016D000ABFC02F013FC074648460A9902F0A4F955
:1016E00002460B464046009902F09EFC02F006FCC2
:1016F000AF4201D150450ED0002100918246109991
:101700000F9801EB0A023D4641198548406A03687B
:101710001F68129BB84700227E4B2046314602F0DC
:10172000D9F9044605980E4622463346079902F039
:1017300079FDB9D3002013B0BDE8F08F0026754FB6
:10174000DEE0754A754B3046394602F06DFC039178
:10175000009002F0F7F880460B91119802F0FDFB23
:101760008146424608910B9B02F05EFC02F0C6FBEC
:1017700080460399009802F057F902460B46484606
:10178000089902F051FC02F0B9FB8146A84501D14D
:10179000D14571D04546CA46002C6FD00BEB4B02A9
:1017A00000920F98404402F0D8FBCDE90901009A5D
:1017B00004EBC202C2E90001009A1098521C009288
:1017C000484402F0CAFBCDE90710009A04EBC202BC
:1017D000C2E90001009A0020521C04EBC203521C13
:1017E000C3E9000000920F98A0EB080002F0B5FBDF
:1017F000009A069104EBC2020B90C2E90001009A24
:10180000DDE90710521C04EBC203521CC3E90001BE
:1018100004EBC2030020C3E90000521CDDE909010A
:1018200004EBC20302F10108C3E900011098A0EB28
:10183000090002F092FB04EBC8020346C2E9000172
:1018400008F1010204EBC20C0020CCE9000089463B
:10185000521C04EBC20C06990B98CCE90001184607
:10186000521C04EBC203C3E900090020521C04EB24
:10187000C202C2E9000039E03AE0FFE70020009030
:10188000109800EB09020A920F9800EB0801244817
:101890000991406A0368D3F800C0129BE04700201A
:1018A00000901F480F990A9A406AA1EB08018846E8
:1018B0000368D3F800C0129BE04700200090109806
:1018C0000999A0EB090216489146406A0368D3F8CB
:1018D00000C0129BE0470020009011484A46414654
:1018E000406A0368D3F800C0129BE0470BF1040B79
:1018F0000022084B3046394602F0ECF806460F4607
:101900000022084B3046394602F052FBFFF419AF73
:10191000584610E70000E03F916B50A246DF913F30
:1019200000000020008056401CB5074CC4E900238D
:10193000C4E90823CDE90001234601220321022046
:1019400000F076F81CBD0000800A002080B202F092
:1019500047B80000024AD26902B19047FEE7000092
:10196000000000202DE9FC410D46174E04461549A4
:101970000020C6E90001984617462046294601F096
:10198000E1FFC6E908012046294602F04DF881F042
:101990000041C6E90A012046294602F045F8C6E999
:1019A0000E012046294601F0CDFFC6E91001CDE920
:1019B0000078032133460122084600F039F8BDE8DB
:1019C000FC8100000000F03FF00900202DE9FC41FF
:1019D0009846174604460D4601F0B4FF124EC6E97C
:1019E00000012046294602F01FF8C6E904010F490C
:1019F0000020C6E908012046294602F015F881F0CA
:101A00000041C6E90C012046294601F09BFFC6E9CA
:101A10001001CDE90078032133460122084600F089
:101A200007F8BDE8FC810000380A00200000F03F04
:101A30002DE9F05F9A46174688468346002629E03E
:101A4000002524E006FB07530B99002001EBC3019E
:101A5000894608600446486016E000BF04FB075151
:101A60000A9800EBC10006FB0841D0E900230AEB0D
:101A7000C101D1E9000102F0D7FAD9E9002302F04F
:101A800029F8641CC9E900014445E7DB6D1CBD422F
:101A9000D8DB761C5E45D3DBBDE8F09F2DE9FF4F18
:101AA00089B0984C169D09981E464FF0000B90B3D4
:101AB000207AC00717D104F1080001F079FA90B13B
:101AC00005A800F0D9FE0FC801ADCDF800B085E83B
:101AD0000F003346402280218B4801F06FF904F15A
:101AE0000800AFF300802079874DC00710D18548EA
:101AF000001D01F05DFA58B109AE009596E80E00A0
:101B000005F1600000F0F8FE7E48001DAFF3008094
:101B10007D48603040E0FFE7207CC00723D1794852
:101B2000103001F045FAF0B1DFF8DCA14FF0800988
:101B30000AF1980A4FF04008002705A800F09CFE23
:101B40000FC80DF1040C00978CE80F003346424695
:101B50004946504601F032F96C4905660160694812
:101B60001030AFF30080207B674DC00705F198056A
:101B700010D164480C3001F01BFA58B109AE009541
:101B800096E80E0005F1640000F0B6FE5D480C30EA
:101B9000AFF300805C48FC30C4E909503F20CDE938
:101BA000000BCDF808B0606AA0467F2301680022D0
:101BB0005E464C681146A04700242546544FDFF886
:101BC00054B1DFF854A127E00022544B20462946A7
:101BD00002F02AFA3A465B4602F038F802F08EF933
:101BE0008146CDE900964E4B062220214020FFF78A
:101BF00049FDCDE900964B4B142220214020FFF7F0
:101C000041FD494A494B2046294601F063FF0446FD
:101C10000D462820FFF79AFE3A46534620462946AD
:101C200002F0C6F9D0D3002425464FF0340AB94655
:101C30004F464A463E4B2046294602F0F3FA14D856
:101C4000CDE900A60296D8F8240054230C2201689E
:101C50004C682C21A047374800242546C0F8E4688A
:101C600000F56450C0F8E4683CE0334A334B20464A
:101C7000294602F0D7FA15D8CDE900A60296D8F881
:101C8000240054230C2201684F682C21B8472246B7
:101C90002B462B4800F07AFD22462B46294800F0BF
:101CA00075FD1FE02046294601F0BEFE0022264BAE
:101CB00002F0BAF902F022F90146214800F0E0FCF6
:101CC0003A465B462046294601F004FF01F0ACFE8F
:101CD00000221D4B02F0A8F902F010F90146194844
:101CE00000F0CEFC4FF03332184B2046294601F06D
:101CF000F1FE04460D46FFF749FC2820FFF726FEBB
:101D000096E7000000000020B00A0020E846000826
:101D100044174154FB210940FB21194000806640D3
:101D2000614419FFD7983BFF9A9999999999C93FAE
:101D3000FB2129405849002073D1307F7CD92240B3
:101D40005819002058520020000008403333D33F78
:101D500010B500F148030A2927D0142917D01B29F0
:101D600036D07F2947D00246806E202874D2A1F158
:101D70003004092C57D9202955D02E2953D0113C95
:101D8000192C61D892F86C40012C4BD04BE090F8A4
:101D90006C10012901D0012100E0002180F86C10B5
:101DA00001684969BDE810400847044620211846EB
:101DB000FEF78AFA616FE06900EB6100C90705D0A0
:101DC0000168226F8B58A18801223AE0236FFAE75D
:101DD000044620211846FEF777FA616FE06900EBB0
:101DE0006100C90705D00168226F8B58A1880222C3
:101DF00027E0236FFAE70146806E00282CDD401EA5
:101E000088660844002280F848204A6FC86900EBC1
:101E10006200D20704D002680B6FD35889880FE0A4
:101E20000B6FFBE72031441C9466C154516FD0699D
:101E300000EB6100C9070CD00168136FCB58918883
:101E40000022BDE81040184740F2D5710348FFF763
:101E500081FD136FF3E7FFE710BD0000A447000802
:101E600010B588B0044603A800F006FD03A920467B
:101E700000F0F8FF216C4FF07F40CDE9010106989A
:101E800000900DF10C0C606C9CE80E0000F009FF56
:101E900008B010BD704700002DE9FE4F1F46DDE978
:101EA0000E8602AB00930368DDE91054DDE90C9A5D
:101EB000D3F810C001ABE047A8EB09000022AAEB61
:101EC0000701401C2260491C2A6016F0407308D0AC
:101ED000B3F1807F12D0B3F1007F0AD040F25731C6
:101EE00017E0019B994209DDC91A01EBD171491034
:101EF00003E0019B994201DDC91A296016F44011E3
:101F00000AD0B1F5801F0FD0B1F5001F0FD040F2FD
:101F10006E310A48FFF71EFD0299884205DD401A1E
:101F200000EBD070401006E02260BDE8FE8F029901
:101F30008842FADD401A2060F7E70000B847000841
:101F40002DE9F84F0446DDE90A68006E1D4691460A
:101F50008A46002808D0476847B133462A46494692
:101F60005046CDF80080B847BDE8F88F006898B1BA
:101F700094F8500080B193460CE0574606E0206E7E
:101F8000424659460368384698477F1CAF42F6DD03
:101F90000BF1010BB345F0DD20690028E4D0E068C7
:101FA00004280FD00228DFD14FF4FC6101EA581059
:101FB000C8F3C40108434FF4784202EA18210843E9
:101FC000494623E049460DE06768236909FB07A0FD
:101FD00003EB8002504602E042F8048B401CA8420A
:101FE000FADD491CB142EFDDBEE700BFD4F804C002
:101FF000276909FB0CA207EB4203524603E000BF2E
:1020000023F8020B521CAA42FADD491CB142EDDD55
:10201000AAE72DE9F0410446006E1D4616460F461C
:1020200040B1036833B194F8500018B12A463146E4
:10203000384698472069002815D0E168042914D053
:10204000022910D14FF4FC6101EA5511C5F3C40215
:1020500011434FF4784202EA15221143626806FBED
:10206000027220F81210BDE8F081616806FB017170
:1020700040F82150F7E7000010B58CB0044607A8DF
:1020800000F0FAFB07A9204600F0ECFEA07940B171
:10209000012818D0022806D040F60C017248FFF73C
:1020A00059FC012000E0032000F016FC216C0DF12A
:1020B0001C0CCDE901010A9800909CE80E00606CB0
:1020C00000F0EFFD1FE0022000F006FC216C0DF196
:1020D0001C0CCDE901010A9800909CE80E00606C90
:1020E00000F0DFFD042000F0F7FB216C02220391D9
:1020F000CDE901020A9800900DF11C0C606C9CE87F
:102100000E0000F091FDA0880021142816D01B2895
:1021100025D0202834D00A2844D02E2853D07F2818
:1021200063D0902874D0A0F141020B91192A6ED887
:10213000E26992F86C20A2B320307EE0D4E90D323F
:10214000A068CDE90510CDE9033208AB93E807009C
:102150008DE80700D4E91010444A079B7FE0D4E9DA
:102160000D32A068CDE90510CDE9033208AB93E844
:1021700007008DE80700D4E910103D4A079B6EE088
:10218000D4E90D32A068CDE90510CDE9033208ABE2
:1021900093E807008DE80700D4E91010354A079B43
:1021A0005DE04AE0D4E90D32A068CDE90510CDE943
:1021B000033208AB93E807008DE80700D4E910105C
:1021C0002D4A079B4BE0D4E90D30A26803930DF133
:1021D000100C08AB8CE8070093E807008DE80700B7
:1021E000D4E91010254A079B39E0D4E90D32A068E4
:1021F000CDE90510CDE9033208AB93E807008DE87F
:102200000700D4E910101E4A079B28E000E010E008
:10221000D4E90D32A068CDE90510CDE9033208AB51
:1022200093E807008DE80700D4E91010154A079BD2
:1022300015E0A0F13002092A01D88DF82C00D4E96C
:102240000D32A068CDE90510CDE9033208AB93E863
:1022500007008DE80700D4E910100BAA079B00F0D7
:1022600013FB0CB010BD0000CC470008E04700088D
:10227000E5470008E9470008EF470008F547000870
:10228000F7470008FC47000810B500F0DDF90149E8
:10229000016010BD1047000870472DE9FF4F87B05F
:1022A0009346DDE91776DDE91598DDF850A01C00AE
:1022B00018D0002513E005A9204600F0F3F80444E7
:1022C0000AEB0500CDE90009CDF80880CDE90376D9
:1022D000DDE907015A46059B00F00EF90544207818
:1022E0000028E8D10BB0BDE8F08F70B54868002435
:1022F000401E00EBD0735B10844216DC8E6803EB4B
:10230000430556F82550954202D203F1010407E037
:1023100004D103EB430106EB810070BDA3F1010082
:1023200004EB000303EBD373E5E74FF0000070BD4F
:102330002DE9FF4F8FB01FACDDE91D9B94E8030131
:10234000CBB210F8014B08F0FF0210F8015B824697
:10235000C4F1FF000592424303FB04220493130AD5
:10236000C1F307220392C8F30726624306FB00224B
:102370000796C1F307460296C8F30741664301FB7F
:102380000060120A000A000440EA0220184340F0EC
:102390007F4000270691089050E000264BE095B161
:1023A000B4B1119800901C98089BC2191298811919
:1023B00010980068D0F800C01098E0476D1E15F026
:1023C000FF0514D036E04FF47D711F48FFF7C2FAC5
:1023D0005FEA1860F2D0119800901C984346C21929
:1023E0001298811910980068D0F800C0E4E70AF14B
:1023F00001009AF8004010F8015B82460598C4F18C
:10240000FF01049A484302FB0400030A0398079A59
:10241000604302FB0100020A0298DDF818C0604325
:102420000CFB0100000A000440EA0220184340F0BF
:102430007F400890761C4E45B1DB7F1C5F45ACDBCE
:1024400013B0BDE8F08F0000014800082DE9F84FF7
:102450001F46DDF82880154682460C0002D00DB1DB
:10246000002616E00021C8F80010481E1960BDE8DB
:10247000F88F6946204600F015F8814629465046F7
:10248000009AFFF732FF08B1007900E028784C4449
:10249000064420780028ECD13E602978C8F8001066
:1024A000E5E7000010B5024603781148C05C01283A
:1024B0000AD002280AD003280CD0042810D040F2F9
:1024C00049410C48FFF746FA0B6010BD128852BA1A
:1024D0000A6010BD54781B0443EA0423927804E098
:1024E0001368D2781BBA23F0FF031343ECE7000014
:1024F000EC040020154800082DE9FF4F87B04FF08D
:10250000FF30DDE9149BDDE91657189E9246884698
:102510000190CDB11A4629460798FFF7E6FE040060
:1025200014D02978A068CDE90476CDE9021020798D
:102530004B46CDE900B0524641460798FFF7F8FEFA
:1025400020790BB0BDE8F08F1A48019010240026C6
:1025500000250BEB0607A81B05EB06010BD0421C60
:1025600009D0012807D0A14205D0601E814202D0C7
:10257000601C81420AD1CDF800A0D8F800003A468C
:1025800009EB0501D0F800C0019B09E0CDF800A0DF
:10259000D8F800003A4609EB0501D0F800C0002346
:1025A0004046E0476D1CA542D5DB761CA642CFDB3A
:1025B0002046C6E70000FFFF2DE9FF4F89B00DF16F
:1025C00060081C4698E88C080646DDE91CA0DDE999
:1025D0001695210021D0CDE90052CDE902300DF150
:1025E0001C0C0DF11808CDE9048C4B463A463046D8
:1025F000FFF752FC079A0DF104082A44CDF810A009
:1026000088E884080699234609EB010000903068A9
:10261000DDE90A1205683046A8470DB0BDE8F08F25
:1026200010B50446806840000CD52068016920463A
:102630008847246A04E02068416920468847A46AE4
:10264000002CF8D110BD704710B50C49002402C011
:102650004FF0C04120F8024B00F8064B40F8041C34
:1026600000F00AF9046144618461C4610462446257
:10267000C4620463446384630C3810BD604700087F
:102680002DE9FC4700F54054D4F8E0084518D4F88B
:10269000E408A84235D0002637464FF4B47811E05C
:1026A000D4F8E418AA1B914202DB081A904208DB16
:1026B000CDE9008704F6EC00D4F8F83803C8FEF73B
:1026C000E1FF761CD4F8E808B042E9DCB946002600
:1026D000474610E0D4F8E4188A1BAA4202DC281A04
:1026E000904207DBCDE9007904F6EC00002303C833
:1026F000FEF7C8FF761CD4F8E808B042EADCC4F85C
:10270000E458BDE8FC8700002DE9F84F9946924651
:102710008B460646002400F540552EE0504601F059
:102720001CFC06EB041742F2282242F22C23D25959
:10273000DB5901F0CFF901F0E1FB8046584601F08A
:102740000CFC42F22022D25907F50057D7F8243268
:1027500001F0C0F901F0D2FB014600200090B9F170
:10276000000F01D0002301E0D5F8F8380648406A90
:10277000026817684246B847641CD5F8F408A042BE
:10278000CCDCBDE8F88F0000000000202DE9F0410E
:1027900000F5405404F6EC011746984606C986B089
:1027A00005460123FFF7B0FF00261AE094F8FC0865
:1027B0006B46002806EB460005EBC0023846414652
:1027C00002D0FFF7CFF801E0FFF700F905EB0610A4
:1027D00042F2202101440022094B6846FFF7A4F889
:1027E000761CD4F8F408B042E0DC04F6EC040023D4
:1027F00006CC2846FFF788FF06B0BDE8F081000050
:102800000000F03F2DE9FC4108AC1E46054694E867
:10281000890005F54054C4F8E06884F8FC78C4F8F1
:10282000F80804F50E640020C4E90103C4E90312AA
:102830004FF4B470CDE9000500233246194618461E
:10284000FEF720FF60612846BDE8FC8110B5002B33
:10285000029C01DD002C03DC53210648FFF77AF8C7
:10286000C0E900121944491E81601119491EC16056
:1028700010BD0000294800084FF0FF31C1608160A1
:1028800041600160704700002DE9F04389B00DF10F
:10289000400E05469EE8C013DDE91540CDE906402F
:1028A0000DF10C0E40468EE8011206488DE8C80076
:1028B000006803685C6813460A462946A04709B0C9
:1028C000BDE8F0830000002010B5001DFFF7D4FF25
:1028D000002140F8041D10BD10B50B2803D3DC21E6
:1028E0000348FFF737F8034951F8200010BD0000F6
:1028F0003D480008788B002010B5029CC160002183
:1029000001614161C0E900230122C0E90C21E168B5
:10291000816084F850208461E065C168616500F1E0
:102920001401A16510BD2DE9F8439846DDE908972B
:1029300015460C46064609E0009730684B4642466D
:10294000D0F800C021463046E047641CAC42F3DDBD
:10295000BDE8F8832DE9F04789464168089D1F4688
:1029600090460446494569DDA168414566DDB9F1F7
:10297000000F63DBB8F1000F60DB94F85100A84250
:1029800004D240F263112E48FEF7E4FF02D1206822
:10299000C5684CE094F85200A84201D284F8525025
:1029A00005EB850004EB800606F118004246494617
:1029B00000F07EFAF0B106F11800E36807C8042BB6
:1029C000A2EB0002A9EB0003A8EB010002F1010257
:1029D00016D000FB02314FF4FC6000EA5710C7F339
:1029E000C40318434FF47843726903EA172318436A
:1029F00022F8110094F85200A84215D0022611E0E6
:102A000000FB0230716941F82070F3E706EB8600A5
:102A100004EB800042464946183000F049FA00288D
:102A20000CD1761EAE42F1D820683B46C5684246BE
:102A300049462046AC46BDE8F0476047BDE8F08710
:102A4000514800082DE9F8431D46DDE90887144682
:102A50008946064609E00097306843462246D0F88A
:102A600000C049463046E047641CAC42F3DDBDE897
:102A7000F88300002DE9F0470446DDE9088980F875
:102A80005110C06D16461F4648B1006B012806DD87
:102A9000D4E901014843E168FDF7E0FB206100252E
:102AA00015E000BFA8EB0600A9EB0701401C491C7C
:102AB0004843E168FDF7D2FB010005EB850004EB1C
:102AC0008000416109D018306D1C80E8C00394F883
:102AD0005100A842E6DCBDE8F08740F27B210148C6
:102AE000FEF738FF654800082DE9F04F8946C16DB3
:102AF000DDE909C6D1E900518A46C168042932D00E
:102B0000022932D14FF4FC6101EA5617C6F3C40121
:102B10000F434FF4784101EA16210F434CE004695A
:102B2000494624B1476802FB071704EB870402FB00
:102B30000518476D07EB880B876DD7F8008008F103
:102B40000108C7F800800BE004B140C490F8507051
:102B50002FB1A94203DA524501DA4BF8046B491C44
:102B60009942F1DD521C6245D9DDBDE8F08F046960
:102B7000494624B1466802FB061604EB460402FBF4
:102B80000518466D06EB480B866DD6F8008008F1F7
:102B90000108C6F800800CE00CB124F8027B90F824
:102BA00050602EB1A94203DA524501DA2BF8027BBC
:102BB000491C9942F0DD521C6245D8DDD5E770B55D
:102BC0004FF4FC6505EA5316C3F3C4052E434FF4D6
:102BD000784505EA132504692E433CB1C568042DE8
:102BE000456802FB051519D024F8156090F850408F
:102BF000002C12D0C56D2C688C420EDD6D6895429C
:102C00000BDD02FB0411C568426D042D09D022F8CA
:102C10001160806D0168491C016070BD44F8253069
:102C2000E4E742F82130F4E72DE9F04F87B00DF1E9
:102C30000808DDE912B6DDE9105788E82F00002406
:102C40002AE000BFCDE9007604980319059898465C
:102C5000051B03982A4601198A460298FFF763FE6E
:102C6000CDE9007606982A46A0EB040951464B466A
:102C70000298FFF758FECDE90076424651464B4692
:102C80000298FFF7DFFECDE90076424629464B4623
:102C90000298FFF7D7FE641C5C45D3D307B0BDE8AC
:102CA000F08FFEB508AF97E870008DE870000468FB
:102CB0006468A047FEBD2DE9F04F87B00646DDE908
:102CC0001008129F002900DA00218B46002A00DA42
:102CD0000022716815464A1E9A4200DA1346B4680B
:102CE0009946611E814201DA641E00E0044696F8AE
:102CF0005100B84204D1CDE900483068846846E00C
:102D000096F85200B84255D107EB870006EB8000D9
:102D1000009018300DF1080A0FC88AE80F004FF430
:102D2000FC6101EA5810C8F3C40108434FF478422B
:102D300002EA18210843AA46019021E05F461BE001
:102D40005246394602A800F0B3F8A0B1F0680299E3
:102D500004280498039BA0EB0100A7EB0102AAEB57
:102D6000030100F1010001FB00210098426915D028
:102D7000019822F811007F1C4F45E1DD0AF1010A9C
:102D8000A245DBDDCDE9004830684B4684682A4621
:102D900059463046A04707B0BDE8F08F42F8218081
:102DA000E9E7CDE900872B464A4659463046FFF70A
:102DB000BAFD6D1CA542F4DDEDE700002DE9F04FF2
:102DC0008BB00024DDE91789DDE915AB8260C0E92D
:102DD00003340E461E49E0E8051615460323142267
:102DE0001C4900F0B2F880F83C4080F83E40046492
:102DF0004464A0F11407846406A8FFF73DFD02684F
:102E0000924519D14268934516D18268904513D1F5
:102E1000C068814510D100216D1E02A80A46731EAC
:102E20000095FFF713FDDDE90401CDE90001DDE9BF
:102E300002233846149905E0CDE900895B465246E5
:102E400038461499FFF716FE0BB03846BDE8F08FF0
:102E500094470008C928000810B50C301DC881E847
:102E60001D0010BD2DE9FF410446C569884668462E
:102E7000FFF702FDD4E9037608E069462846FFF72C
:102E8000EBFF0098ED69074401980644002DF4D14A
:102E90002169A069E268401A6169401C8B1A0090A0
:102EA0003246394640465B1CFFF7D0FCBDE8FF8147
:102EB00003688B420ADC83688B4207DB41689142DE
:102EC00004DCC068904201DB01207047002070479D
:102ED000490050EAC12018BF04204A0D18BF40F035
:102EE000010040F2FF72B2EB515F08BF40F00200F8
:102EF000012808BF052070470907090E002804DBD8
:102F000000F1E02080F80014704700F00F0000F19D
:102F1000E02080F8141D70472DE9F04107469046E7
:102F20000E4600251020FDF70FFA04000BD0C4F860
:102F30000C80C4E90176FDF703FA016821600460A2
:102F40002846BDE8F0810125FAE72DE9F0411C464D
:102F500017460E00804607D0054602E02846B047D7
:102F60003D442046641EF9D24046BDE8F0812DE97B
:102F7000F0410646FDF7E4F9804613E026B1E0682B
:102F8000B04201D025460EE020682860D4E9010156
:102F9000D8F8007088472046FDF705FAD8F80000F9
:102FA000B84200D045462C68002CE7D1BDE8F0813E
:102FB000016809B10020704701210160084670478F
:102FC0002DE9F74F144694B00021C4E90211159978
:102FD000079121F00045C9498D4206DC1599C4E9E5
:102FE000000117B00020BDE8F08FC549DFF814A339
:102FF000A9423CDD0799C44E0029C44FC44A159923
:10300000534619DD01F050F9554506D0C14AC24B6F
:1030100001F04AF9C4E900010AE04FF0D352BE4B77
:1030200001F042F932463B4601F03EF9C4E90001A5
:1030300017B00120BDE8F08F00F04CFD554506D0DB
:10304000B44AB54B00F046FDC4E900010AE04FF078
:10305000D352B14B00F03EFD32463B4600F03AFD04
:10306000C4E9000117B04FF0FF30BDE8F08FAB4965
:10307000A942159978DB21F0004183468846A84A89
:10308000A84B00F0D1FF0022A74B00F023FD00F079
:1030900035FF099000F061FF06460F469C4A5346F3
:1030A00000F0C2FF43465A4601F0F2F880468A46D5
:1030B000984A994B3046394600F0B6FF2A0D012553
:1030C0000B924246534601F0E3F8032DC4E9000198
:1030D00039D00B98C1F30A51401A05EB451111394B
:1030E000814230DA9148C346784400EB0510CDF8B0
:1030F0000CA00C90D0E900233046394600F094FF34
:1031000002460B46049106905846039901F0CCF80C
:1031100080468A4602460B465846039901F0C4F899
:10312000049B069A01F0C0F883460C980391394637
:10313000D0E90223304600F077FF5A46039B01F0A6
:10314000B3F86D1CBDE707980028A2BF099817B017
:10315000BDE8F08F616881F000416160099817B0A7
:103160004042BDE8F08FFFE784461598C1F3130194
:10317000C0F30A50A0F2F5304FEA601800F01F06C5
:10318000C6F12000139000200690079041F4801EA5
:1031900005206D4676B1664A08EB00017A4452F884
:1031A000213002EB8101B3404A68139922FA01F100
:1031B000194305E05F4908EB0002794451F82210F9
:1031C000A1FB0E27A1FB0C131A449A4234BF012322
:1031D000002303EB070A05EB8003D3E901B70F4493
:1031E0008F4234BF0121002193448B4411B1934598
:1031F00002D903E0934501D2012100E00021C3E997
:1032000001B7514445F82010011EA0F10100C1DCB6
:103210000298059F00F10050800F12900298DDE99E
:103220000356800000F099FE834628460D9100F079
:10323000ABFE6FF01D0201F053F9CDE90E013046EF
:1032400000F0A2FE6FF03D0201F04AF980468A4686
:10325000384600F099FE6FF05D0201F041F9074633
:1032600042465346119100F035FCDDE90E2300F093
:1032700031FC5A460D9B00F02DFC00250E465A46A7
:1032800028460D9B01F010F8DDE90E2301F00CF843
:103290004246534601F008F83A46119B00F0F8FF09
:1032A000DFF898A0244A534600F0BEFE0746884641
:1032B000234A244B3146284600F0B6FE3A464346A0
:1032C00000F008FC074688464FF0A84253463146B6
:1032D000284600F0A9FE3A46434600F0FBFB159A4B
:1032E00012F0004F04D0129A81F000415242129223
:1032F000C4E90001129817B0BDE8F08FFB21E93F47
:103300007CD90240FB21F93F7370032E8A19A33B3D
:10331000000040543163621A61B4D03DFB21394151
:1033200083C8C96D305FE43F0000E03FCC1400006B
:10333000481400002A140000182D4454FB21F93DC4
:103340003326A611460B113C2DE9FF4D21F0004814
:1033500007460C46B8F1795F08DA00F0CFFD002887
:1033600001BF0020324904B0BDE8F08D3A46234643
:103370001046194600F058FE054602462D480E46F6
:103380000B460621784400F05DF82A46334600F0EB
:103390004BFEDDE9022382468B463846214600F08B
:1033A00043FE04460F4652465B462846314600F02F
:1033B0003BFE22463B4600F077FF07468A464FF029
:1033C000FF322846314601F08BF81B4A90450ADA55
:1033D0003A46534600F068FF04B00022BDE8F04DC5
:1033E000134B00F055BF154A4245A8BFA8F500157C
:1033F0004FF00004B8BF124D22462B4600F054FF98
:103400000646884622462B460020094900F04CFF1C
:1034100004460D463A4653463046414600F044FFC6
:1034200004B022462B46BDE8F04D00F031BF00004D
:103430000000F03F001200003333D33F0000E93FAB
:103440000000D23F2DE9F0414F1E00EBC7010446BA
:10345000D1E9000115461E4637F006020DD02A4676
:10346000334600F0E1FD7F1E04EBC703D3E90023E0
:1034700000F030FB37F00602F1D1022F25D0042FE7
:1034800013D0062F18BFBDE8F0812A46334600F05E
:10349000CBFDD4E90A2300F01DFB2A46334600F099
:1034A000C3FDD4E9082300F015FB2A46334600F09B
:1034B000BBFDD4E9062300F00DFB2A46334600F09D
:1034C000B3FDD4E9042300F005FB2A46334600F09F
:1034D000ABFDD4E9022300F0FDFA2A46334600F0A2
:1034E000A3FDD4E90023BDE8F04100F0F3BA0000E9
:1034F0002DE9FF4D054621F0004084B00C46B0F1A7
:10350000795F0BDA2846FFF7E3FC042808BF00F0D8
:103510006FF8284608B02146BDE8F08D2A460B46D4
:10352000104600F081FD06460F462A46234600F06D
:103530007BFD804626488A4632463B460521784434
:10354000FFF780FF83461098029160B3214A224B17
:103550004046514600F068FDCDE900015A4640461C
:103560005146029B00F060FD82468846DDE9060177
:103570004FF0FF3200F0B4FF5246434600F094FE95
:1035800032463B4600F050FDDDE9062300F08CFE9C
:10359000DDE9002300F088FE08B02A462346BDE896
:1035A000F04D00F075BE0B465A463046394600F0E5
:1035B0003BFD084A084B00F08DFA4246534600F0A6
:1035C00033FD08B02A462346BDE8F04D00F082BA2C
:1035D0003E110000495555555555C5BF012200F013
:1035E0007FBF002213461046114600F02FBB00009B
:1035F000024A0020110700F073BF000001FDFFFF29
:103600003EB5BA48BA490160001DBA490160BA48DE
:10361000FFF71AF8B9490160B94ABA49FFF77CFCCB
:10362000B948FEF731FEB64AB849FFF775FCB6480F
:103630005030FEF729FEB24AB449FFF76DFCB2489C
:10364000A030FEF721FEAE4AB049FFF765FCAE4858
:10365000F030FEF719FEAA4AAC49FFF75DFCAC4812
:10366000FEF712FEA64AA949FFF756FCA8485030BB
:10367000FEF70AFEA24AA549FFF74EFCA448A03077
:10368000FEF702FE9E4AA149FFF746FCA048F03033
:10369000FEF7FAFD9A4A9D49FFF73EFC9D48FEF76A
:1036A000F3FD974A9949FFF737FC9A485030FEF7E7
:1036B000EBFD934A9549FFF72FFC9648A030FEF7A3
:1036C000E3FD8F4A9149FFF727FC9248F030FEF75F
:1036D000DBFD8B4A8D49FFF71FFC8F48FEF7D4FDB9
:1036E000874A8A49FFF718FC8B485030FEF7CCFD1B
:1036F000834A8649FFF710FC8748A030FEF7C4FDD7
:103700007F4A8249FFF708FC8348F030FEF7BCFD92
:103710007B4A7E49FFF700FC8048FEF7B5FD784AFA
:103720007A49FFF7F9FB7D485030FEF7ADFD744A4A
:103730007649FFF7F1FB7948A030FEF7A5FD704A06
:103740007249FFF7E9FB7548F030FEF79DFD6C4AC2
:103750006E49FFF7E1FB7248FEF796FD684A6B4938
:10376000FFF7DAFB6E485030FEF78EFD644A67497A
:10377000FFF7D2FB6A48A030FEF786FD604A634936
:10378000FFF7CAFB6648F030FEF77EFD5C4A5F49F2
:10379000FFF7C2FB6348FEF777FD594A5B49FFF725
:1037A000BBFB60485030FEF76FFD554A5749FFF7A5
:1037B000B3FB5C48A030FEF767FD514A5349FFF761
:1037C000ABFB5848F030FEF75FFD4D4A4F49FFF71D
:1037D000A3FB5548FEF758FD494A4C49FFF79CFBAF
:1037E00051485030FEF750FD454A4849FFF794FBD9
:1037F0004D48A030FEF748FD414A4449FFF78CFB95
:103800004948F030FEF740FD3D4A4049FFF784FB50
:103810004648FEF739FD3A4A3C49FFF77DFB4348ED
:103820005030FEF731FD364A3849FFF775FB3F4807
:10383000A030FEF729FD324A3449FFF76DFB3B48C3
:10384000F030FEF721FD2E4A3049FFF765FB38487E
:10385000FEF71AFD2A4A2D49FFF75EFB3448503027
:10386000FEF712FD264A2949FFF756FB3048A030E3
:10387000FEF70AFD224A2549FFF74EFB2C48F0309F
:10388000FEF702FD1E4A2149FFF746FB2948FEF7D5
:10389000FBFC1B4A1D49FFF73FFB26485030FEF753
:1038A000F3FC174A1949FFF737FB2248A030FEF70F
:1038B000EBFC134A1549FFF72FFB012008241E4992
:1038C0000290CDE900141B48062320224021F43049
:1038D000FEF798FF1949CDE9001400200290142347
:1038E000202240211648FEF78DFF3EBD1400002027
:1038F0000047000844470008A48B0020B046000899
:1039000000000008951E0008E40B00209922000822
:10391000240D0020640E0020A40F0020E4100020DD
:103920002412002064130020A4140020E4150020B9
:103930002417002064180020614419FFD7983BFF2A
:103940005852002000B5244B21F0004287B09A4223
:10395000DCBF0022134629DD204B9A4208D140B932
:103960004FF00100FCF74BFDFFF73BFE07B000BD39
:1039700003DBFFF733FE07B000BD02AAFFF720FB11
:1039800010F0030104BF0DF1080C9CE80F000DD0EE
:10399000012001290ED0022914D00DF1080C00904D
:1039A0009CE80F00FFF7A4FD07B000BDFFF7CCFCBB
:1039B00007B000BD0DF1080C00909CE80F00FFF768
:1039C00097FD05E00DF1080C9CE80F00FFF7BCFC2B
:1039D00007B081F0004100BDFB21E93F0000F07F0E
:1039E000FCF712BED2B2C9B2C0B2FDF747BD0000AB
:1039F00008B5FDF7AFF8FDF7F8FDFDF7E9FCFDF7B9
:103A000005FDFDF759FD0748054901230160002127
:103A10004160009040228021002000F055F8FEE730
:103A2000E5390008D404002000B5254B21F0004200
:103A300087B09A4203DC0022134600922BE0214B10
:103A40009A4208D140B94FF00100FCF7D8FCFFF7CB
:103A5000C8FD07B000BD03DBFFF7C0FD07B000BD28
:103A600002AAFFF7ADFA10F003014FF001000DD0EC
:103A7000012914D002291AD00DF1080C9CE80F007E
:103A8000FFF762FC07B081F0004100BD0DF1080CAA
:103A900000909CE80F00FFF72BFD07B000BD0DF173
:103AA000080C9CE80F00FFF74FFC07B000BD0DF1BC
:103AB000080C00909CE80F00FFF71AFDE2E70000F9
:103AC000FB21E93F0000F07F08B5029C0094FDF760
:103AD000E5FF000010B591EA030F48BF83F00043F3
:103AE00000F1EA83841A71EB030C05D2121943EB3F
:103AF0000C03001B61EB0C01DFF824E14FEA1154C9
:103B0000A4EB135C1EEA430F18BF9EEA445F73D018
:103B100023EA0E03DCF1200E21EA045143F4801362
:103B200032D322FA0CFE10EB0E0023FA0CFE41EB0E
:103B30000E01CCF1200E03FA0EFE10EB0E0051F137
:103B40000001B1F5801FCCF1200E32D201EB0451FF
:103B500012FA0EF2BDE8104058BF7047401C38BF43
:103B60005FEA420218BF7047002814BF20F001002E
:103B700041F100014FEA410313F5001F38BF7047C0
:103B8000A1F1C04100F048BB012A43EB0302ACF1B4
:103B9000200CDCF11F0E32BF4FF0000E23FA0CF3A5
:103BA00010EB030041EB0451B4EB115FD0D0A1EB5B
:103BB000045101F5801149085FEA300001EB04511E
:103BC0000ED350F1000038BF12FA0EFE08D1BDE846
:103BD0001040C9E7401C38BF5FEA4202CAD1C3E7C0
:103BE000BDE810404FEA410313F5001F38BF70478E
:103BF000A1F1C04100F010BB9EEA445F08D011EA79
:103C00005E0FBDE8104004BF01F000410020704786
:103C1000BDE8104070B500F0B1FA00BF64FBBE3ED5
:103C20000000E0FF02494FF0000000F027BC00BF99
:103C30000000F87F491058BFC1F140415B1058BFE8
:103C4000C3F140438B42EFF3008070472DE9C04140
:103C500030B4DFF8A0C23CEA111418BF3CEA1314D8
:103C600000F0EC8081EA03051CEA111444EAD574E3
:103C700018BF1CEA131500F0C780A4EB05044FF031
:103C8000004545EAC12145EAC32341EA505143EAD0
:103C9000525304F17F74994204F500344FEAC02076
:103CA0004FEAC22208BF904200F09C804FEA1365A1
:103CB0000FF24016765D4FEA134506FB05F7C7F194
:103CC000807706FB07F74FEAD737A7FB03687642F2
:103CD000C8F58038A7FB06CE38BFA8F1010807FB5E
:103CE00008E64FF0000EA6FB028CE6FB03CEDCF1EB
:103CF000000CCEF1004E38BFAEF1010EA6FB0C5801
:103D00004FF000074FF00005E6FB0E87A1FB08C649
:103D1000A0FB07CE16EB0E0645F10005E1FB07659B
:103D200015F1E04E7EBFA4F580345FEA46066D4192
:103D300016F1800745F100054FEA17274FEA06669E
:103D400047EA0567A6F1DE46B6F1805F4FEA152522
:103D50001FD9384624F0010C05EBC471BCF1FE6F8D
:103D600001EB0C1102D8F0BCBDE8008124425CBF1D
:103D700001F5801E9EEAC47F02D4F0BCBDE800813C
:103D8000244238D4F0BCA1F1C041BDE8004100F0AC
:103D900043BA4FEAD22242EA43524FEAD323A7FB67
:103DA00002864FEAD02040EA415007FB03661EEA34
:103DB0000E0F4FEAD12105FB026658BFA6EB005655
:103DC000B6EB00564FEA520E4EEAC37E18EB0E0ECB
:103DD00056EB530EBDD518EB02085E417F1C55F122
:103DE0000005B6E74FF480154FF000074FF00006CE
:103DF0004FF00008ADE7F0BC4FF0000001F1C0410A
:103E000001F00041BDE8008111EA0C1F0CEA131516
:103E100000D00CE013EA0C1F00F025804FF00000EA
:103E2000F0BC81EA030101F00041BDE80081F0BC73
:103E3000BDE8004181EA030100F0EEB9F0BCBDE845
:103E4000004170B500F09AF9097EFC3E00F007B819
:103E500081EA03014FF0000001F00041704781EA60
:103E6000030100F0D9B9F0BCBDE800414FF00000FB
:103E700021497047FFFDFBF9F7F5F4F2F0EEEDEBA9
:103E8000E9E8E6E4E3E1E0DEDDDBDAD8D7D5D4D358
:103E9000D1D0CFCDCCCBCAC8C7C6C5C4C2C1C0BFA4
:103EA000BEBDBCBBBAB9B8B7B6B5B4B3B2B1B0AFAA
:103EB000AEADACABAAA9A8A8A7A6A5A4A3A3A2A18E
:103EC000A09F9F9E9D9C9C9B9A9999989797969549
:103ED00095949393929191908F8F8E8E8D8C8C8BE5
:103EE0008B8A89898888878786858584848383826D
:103EF000828181800000FF070000F87F4FEA4103C4
:103F00004FEA5353A3F58063D3F11E03C8BFD3F127
:103F1000210C0CDD4FF0004242EAC12242EA50522D
:103F200032FA03FC8CEAE17CACEBE1707047102BB9
:103F3000C4BF0020704703F5787CBCF1FF3F04D07C
:103F40006FF0004282EA2100704770B500F016F968
:103F50004992248000207047F2E710F0004248BFE9
:103F60004042B0FA80F310FA03F10AD0C3F11D0306
:103F700003F580634FEA415002EB035202EBD1217B
:103F800070474FF000007047B0FA80F310FA03F169
:103F90000AD0C3F11D0303F580634FEA41504FEA95
:103FA000035202EBD12170474FF000007047000030
:103FB00051EA030C17D41CF5801F58BFBCF5801FB5
:103FC00000F10680994218BF704708BF90427047C1
:103FD00007D711F5801F58BF13F5801F19D49942D8
:103FE0007047894270471CF5801F08D5BCF5801FBB
:103FF000F7D58B4218BF704708BF824270474FF415
:10400000001C1CEB410F38BF1CEB430F01D28B424D
:10401000704770B500F0B2F8922449004FF000519B
:104020004FF08053FFF706BEDFF848C170B51CEAB9
:10403000111E1EBF1CEA13159EEA0C0F95EA0C0F09
:1040400000F06F8081EA030423EA4C134EEAD47E29
:1040500021EA4C1141F4801143F48013AE44A1FBDA
:10406000024CA0FB0365AEF17F7E361955EB0C05C3
:10407000A1FB034C4CF10003A0FB021C16EB0C0649
:10408000654153F10003094218BF46F0010613F4DD
:10409000007F0BD14FEA03314FEA0530340341EA88
:1040A000155140EA16506FF003020AE04FEAC321AF
:1040B0004FEAC520F40241EA555140EA56506FF0EC
:1040C000020202EB2E4201EB025585EACE710AD0C4
:1040D0005FEA440C18BF24F0004450F1000041F1A5
:1040E000000120EAD47040F2FE7C624500D270BD2F
:1040F000A84214BF4FF080444FF04044002E08BF48
:104100000024BEF1806FA8BFA1F1C041BDE870409E
:1041100080F282804FF0000001F1C04101F00041C7
:1041200070479EEA0C0F0CEA131518BF95EA0C0FA6
:1041300006D04FF0000081EA030E0EF0004170BD82
:1041400000F01CF88900013E00F007B800F009B843
:104150004FEA430C5FEA5C5C08D081EA030100F09F
:104160005BB84FEA410C5FEA5C5CF6D14FF00000AF
:10417000014970470000FF070000F87F0EF1020EB2
:104180002EF0030E5EF8046B364205D4012A43EB91
:10419000030515F5001F12D8012841EB010C1CF591
:1041A000001F0CD80ED14FEAD17C15F5001F0CEB87
:1041B0004C0C0CF1020C08BF4CEBD37C04E04FF02C
:1041C000080C01E04FEAD37C0CEB4C0526FA05F60F
:1041D00006F00706B6F1040C06D20EEB860CBDE81D
:1041E00070404CF0010C6047DFE80CF0090B020254
:1041F0004FF000414FF00000A1F5002170BD1946BD
:104200001046012851EB010418BFD4F5001484BFF7
:10421000002001F0004170BD0808A0F500114FEA30
:104220003101704753EA010C17D41CF5801F58BFA9
:10423000BCF5801F00F106808B4218BF704708BF95
:104240008242704707D713F5801F58BF11F5801FB2
:1042500019D48B4270479B4270471CF5801F08D5CC
:10426000BCF5801FF7D5994218BF704708BF904230
:1042700070474FF4001C1CEB430F38BF1CEB410F81
:1042800001D2994270470FB40CBC03BCFFF7C1BE0A
:1042900091EA030F10B581F000413FF523AC83F0A4
:1042A000004300F009B8000010B591EA030F48BFC1
:1042B00083F000433FF516AC841A71EB030C07D270
:1042C00012198CF0004C43EB0C03001B61EB0C014A
:1042D000DFF8A4E14FEA1154A4EB135C1EEA430F8C
:1042E00018BF9EEA445F00F0B08023EA6E0352429A
:1042F00021EA0451C3EB6E0338BF5B1EDCF1200ED4
:1043000025D322FA0CFE10EB0E0043FA0CFE41EB13
:104310000E01CCF1200E03FA0EFE10EB0E0051F14F
:104320000001CCF1200E29D412FA0EF201EB045157
:10433000BDE8104058BF7047401C1CBFB2F1004F91
:10434000704700280CBF491C20F00100704712EB99
:10435000020E43EB030218BF4FF0010E4EEA420279
:10436000ACF1200CDCF11E0E54D943FA0CFE10EB1C
:104370000E0051F1FF31CCF11E0ED5D50EF1010E1C
:1043800012FA0EFE404141EB010101EB445C5FEA91
:104390005C5C10D910EBDE7001EB045138BFBEF14C
:1043A000004FBDE8104018BF704700280CBF491CE3
:1043B00020F00100704730D24FEAD42C11F50011E3
:1043C00024F400641BD0B1FA81F20B3AA41AA41EA3
:1043D000D2F12003914030FA03F31943904001EBEE
:1043E000CC71002C01EB0451BDE81040A8BF704710
:1043F00001F1C0414FF0000001F000417047B0FAF8
:1044000080F310FA03F100D110BDE41A173C4805FF
:10441000C90AE4E701EB045110BD491001EB045156
:10442000BDE810404FEA300002E04FF00001704755
:104430004A0008BF0042F8D0B2F5001F28BF7047FD
:1044400001F000414FF0000070479EEA445F07D042
:1044500011EA5E0FBDE8104004BF00210020704744
:10446000BDE8104070B5FFF789FE00BF40DFF63EA3
:1044700083F00041104670470000E0FF0CF00F038E
:10448000092B08BF082000F059800A2B0BD0082BFD
:1044900018BF704708BF1CF0400F0AD04FF0000053
:1044A0004FF0000170471CF0400F18BF4FF0004064
:1044B00070471CF0100F08D020F0704300F07F42CE
:1044C00042EAD3014FEA4370704700F0604021F0A8
:1044D0007F4242EA000201F07F4040EA727070477A
:1044E0004FF0FF0C4CF4E06C1CEA11531CBF9CEA2B
:1044F000030C9445C2BFDA4201EB02517047002B16
:104500000DD0BCF1000F0FD0002A01F00041A4BF74
:1045100041F0E04141F07F614FF00000704701F051
:1045200000414FF00000704750EA01334FF09B0C00
:1045300018BF4CF0806C7FF475AB70471CF4801F83
:1045400011D01CF4E02F03D06FEACC314900704742
:104550004FF04050EFF3008222F0704242EA000236
:1045600082F3008870474FF00000704700000000A1
:104570000000000001020304060708090000000013
:1045800001020304000000004C5555555555A53F48
:104590007751C1166CC156BF9015CB19A001FA3ED8
:1045A000AD529C804F7E92BEC4B1B4BD9EEE213E02
:1045B000D43888BEE9FAA8BD00004054FB21F93F79
:1045C0003163621A61B4D03D0000601A61B4D03D1D
:1045D0007370032E8A19A33B0000002E8A19A33B97
:1045E000C14920259A837B390000000000000000AB
:1045F0006E83F9A22915444ED15727FCC0DD34F54E
:10460000999562DB4190433CAB6351FE61C5BBDED3
:104610003A6E24B7E0D24D42EA2E49061C92D109E7
:104620001CEB1DFE3EA729B1F53582E88444BB2E64
:1046300026709CE9417E5FB439D69139F4395383B1
:104640008B5F849C3B28F9BDFF97F81F0F9805DE10
:104650008B112FEF1F6D0A5ACF7E366DB709CB270E
:10466000663F464F2DEA5F9EC7BA27757BF1E5EBA3
:10467000F739073DEA92528AB15FFB6B085D8D1FE7
:10468000A6F810111111813FD561C119A0012ABFEF
:104690007DFEB157E31DC73EEB9C2B8AE6E55ABE73
:1046A0007CD5CF5A3AD9E53D00000000000000005B
:1046B000951E00080000000000000000000000003F
:1046C000611E000821260008000000000000000014
:1046D00000000000000000000000000000000000DA
:1046E000000000000000000055290008B72C000859
:1046F000411F000813200008000000000000000017
:1047000000000000000000000000000000000000A9
:1047100099220008000000000000000000000000D6
:104720007920000821260008000000000000000099
:104730000000000000000000000000000000000079
:10474000000000009B220008B925000800000000BE
:10475000000000004D2400080000000000000000E0
:104760000000000000000000000000000000000049
:104770004726000821260008000000000000000075
:104780000000000000000000000000000000000029
:104790000000000055290008B72C0008E92A00088D
:1047A000BF2B00082E2E5C5549636F64655C47750E
:1047B000694C6974652E68002E2E5C5549636F64E0
:1047C000655C4775694C6974652E68002E2E5C55D2
:1047D00049636F64655C4775694C6974652E680050
:1047E00043617073004573630053706163650045F6
:1047F0006E746572002E004261636B003F3132338C
:10480000002E2E5C5549636F64655C4775694C6981
:1048100074652E68002E2E5C5549636F64655C4795
:1048200075694C6974652E68002E2E5C5549636F5E
:1048300064655C4775694C6974652E68002E2E5C52
:104840005549636F64655C4775694C6974652E688A
:10485000002E2E5C5549636F64655C4775694C6931
:1048600074652E68002E2E5C5549636F64655C4745
:1048700075694C6974652E6800000000A048000846
:1048800000000020EC0500006C0100087C4A0008D4
:10489000EC050020E4920000C801000865EDFFFF70
:1048A000221802302013511D4208130414732051A2
:1048B0001A02021241522613E4157320579A451822
:1048C0001344107320459A88181A544872529ACB90
:1048D000181AF41872548B0E01181384166B205991
:1048E0008C99181A44787255AA9430121173204981
:1048F0009AD71813641373204F8B1A02181AB4181E
:1049000072509A5D1813040F73204112227A2A18EC
:104910001AA4A872539A65181AF43072449AA81807
:104920001394107320469AEB181AE41872478B2ED2
:1049300001181A34C072489A71181AD418724A9A17
:10494000B41813241273204B9AF7181A7418724C67
:104950009B3A02181217732014120212526A6160F5
:1049600012167B205AD88A529019187A58D889186A
:104970001AA4F07A43D889181394157B2056D88945
:10498000181A54307A42D889181314137B204ED841
:1049900089181AC4C07A4DD889181364187B207FEF
:1049A000D812525A62181AB4187A1BD8127A5A843A
:1049B000181304197320901A881869F013C4177B10
:1049C0002020C0127A5AC7181A24187A2E90127A08
:1049D0006A64A81960720A8B1A0260011813340CF9
:1049E0007B2031907A02C01A841872329A45181AC4
:1049F000D4187A33A8891813240D7B2034487A2AD6
:104A0000181A74187A354889181AC4187A364889D9
:104A10001813140E7B2037487A52181A64187A3803
:104A20004889181AB4187A3948991812187B201B2B
:104A3000487A7A1813E40B7B20304889181324171E
:104A40007B202E4889181A6448727F3ACBF04A4E70
:104A5000A819187A0A1829784918012032018210F9
:104A60001324F40ABD01010A1D0201DA03015A04EC
:0C4A7000011A0501050006060101000006
:0400000508000131BD
:00000001FF
