:020000040800F2
:10000000C01B002001010008CB0F0008DD0C000818
:10001000C90F0008C3010008BD130008000000005C
:10002000000000000000000000000000671300084E
:10003000C5010008000000006513000869130008EE
:100040001B0100081B0100081B0100081B01000820
:100050001B0100081B0100081B0100081B01000810
:100060001B0100081B0100081B0100081B01000800
:100070001B0100081B0100081B0100081B010008F0
:100080001B0100081B0100081B0100081B010008E0
:100090001B0100081B0100081B0100081B010008D0
:1000A0001B0100081B0100081B0100081B010008C0
:1000B0001B0100081B0100081B0100081B010008B0
:1000C0001B0100081B0100081B0100081B010008A0
:1000D0001B0100081B0100081B0100081B01000890
:1000E0001B0100081B0100081B010008DFF80CD0F1
:1000F00000F02AF80048004749140008C01B0020FF
:100100000648804706480047FEE7FEE7FEE7FEE7B1
:10011000FEE7FEE7FEE7FEE7FEE7FEE7BB130008AB
:10012000ED000008D2B201E000F8012B491EFBD21D
:1001300070470022F6E710B513460A4604461946F2
:10014000FFF7F0FF204610BD064C074D06E0E068C3
:1001500040F0010394E8070098471034AC42F6D30E
:10016000FFF7C8FFBC2C0008DC2C000870B58C1809
:1001700010F8015B15F0070301D110F8013B2A11BB
:1001800006D110F8012B03E010F8016B01F8016BA8
:100190005B1EF9D12B0705D40023521E0DD401F8A4
:1001A000013BFAE710F8013BCB1A921C03E013F86D
:1001B000015B01F8015B521EF9D5A142D8D30020A2
:1001C00070BDFEE7704770472DE9F84FDFF8B89132
:1001D000002409F1040A0AF1040B23460F270BF14E
:1001E000040EC9E00125A5402A40AA427DD1674EF0
:1001F000D1F804C0ACEB0608B44532D014DCBCF135
:10020000030F3AD009DCBCF1000F2AD0BCF1010F7A
:100210001CD0BCF1020F31D11DE0BCF1110F17D081
:10022000BCF1120F2AD119E0B8F5881F19D006DCED
:10023000B8F5803F15D0B8F5801F1FD111E0B8F593
:10024000001F0ED0B8F5041F18D10AE0CB6815E0E6
:10025000CB681B1D12E0CB6808330FE0CB680C3372
:100260000CE08B682BB1012B4FF0080303D04561E4
:1002700004E0042302E0056100E00023FF2A01D826
:10028000064601E000F104064FEA840501D9A5F114
:100290002005D6F8008007FA05FC28EA0C0803FAC6
:1002A00005F548EA0508C6F800804D68ED0062D5FE
:1002B000374DAE6946F00106AE61AD6924F0030624
:1002C00005F001050095334D06EB050CDCF80850F0
:1002D000A607360F07FA06F825EA0805DFF8B88002
:1002E000404503D14FF0000817E044E0DFF8AC8050
:1002F000404502D14FF001080FE0DFF8A4804045EF
:1003000002D14FF0020808E0DFF89880404502D1A2
:100310004FF0030801E04FF0040808FA06F848EA35
:100320000508CCF808804D68D9F80060ED034D460B
:1003300001D5164300E096432E604D68DAF8006060
:10034000AD03554601D5164300E096432E604D6837
:10035000DBF80060ED025D4601D5164300E09643F0
:100360002E604D68DEF80060AD02754601D516437B
:1003700000E096432E60641C0D682A46E5407FF439
:1003800031AFBDE8F88F00000004014000001110FB
:10039000001002400000014000080140000C014034
:1003A00000100140001401400148806870470000BF
:1003B0005813002070B5040025D094F83D000025A6
:1003C00020B984F83C50204600F050F9242084F8ED
:1003D0003D002068016821F001010160206801688A
:1003E00041F4004101602068016821F4004101608E
:1003F00000F08AFA4D4A6168914201D84C4900E008
:100400004C49884201D2012070BD4B492368B0FBA2
:10041000F1F15E6826F03F060E435E60636893422A
:1004200006D94FF4967359434FF47A73B1FBF3F145
:100430002368491C1E6A26F03F0631431962616831
:10044000914210D84900401EB0FBF1F2521CC2F399
:100450000B02042A01D2042022E0B0FBF1F0401C80
:10046000C0F30B001CE0A268F2B301EBC10303EB85
:100470000116431EB3FBF6F35B1C43F480431B05DC
:1004800049D092B301EBC10202EB0111401EB0FB57
:10049000F1F0401CC0F30B0040F4804040F40040F9
:1004A0002168CA694CF6FF739A431043C861D4E9C6
:1004B000071001432068026822F0C0021143016066
:1004C000D4E9030101432068826848F2FF339A436C
:1004D00011438160D4E9050108432168CA6822F00C
:1004E000FF021043C86001E00EE016E020680168DA
:1004F00041F0010101602564202084F83D0025635E
:1005000084F83E50002070BD01EB4106431EB3FB52
:10051000F6F35B1CB3E70120C2E701EB4101401E8B
:10052000B0FBF1F0401CC0F30B00B7E7A086010060
:1005300080841E0000093D0040420F002DE9FF4F5E
:1005400083B09A46DDE9119793460446DDF8408072
:10055000FFF72AFF054694F83D0020287FD1192394
:10056000012240492046009500F04AFC002876D13F
:1005700094F83C00012872D0012084F83C002068E7
:100580000168C90703D1016841F0010101602068D9
:10059000016821F400610160212084F83D004020C1
:1005A00084F83E0000262664C4F82480A4F82A902B
:1005B000608D20852C48E062CDE9007553465A468F
:1005C0002046049900F0A2FB70B930E02A46394673
:1005D000204600F094FC58B1206C042804D1206817
:1005E000016841F400710160012007B0BDE8F08F9F
:1005F000606A216800780861606A401C6062218D31
:10060000491E89B22185628D521E62852268536916
:10061000DB435B070BD469B100781061606A401C52
:100620006062208D401E2085608D401E6085208D7B
:100630000028CBD12A463946204600F0BBFB0028D3
:10064000CAD154F83D0B016841F4007101602020CB
:1006500004F81E09E67766770020C6E7FFE7022068
:10066000C3E70000020010000000FFFF10B586B0D5
:100670000021009101910291039100680F49884285
:100680001AD10F4CA06940F00800A061A06969462A
:1006900000F008000490C020009012200190032078
:1006A00003900848FFF790FDE06940F40010E06116
:1006B000E06900F40010049006B010BD0054004042
:1006C00000100240000C0140024881680278114489
:1006D0008160704758130020074810B5016841F049
:1006E00010010160032000F067F8002000F006F818
:1006F00000F024F8002010BD0020024070B50D4D20
:1007000004464FF47A712878B1FBF0F00A49096881
:10071000B1FBF0F000F0CEFA48B9102C07D200225D
:100720002146501E00F028F800206C6070BD0120AA
:1007300070BD000058130020641300200C4808B559
:10074000816941F001018161816901F0010100913C
:10075000C16941F08051C161C06900F080500090D2
:100760000448416821F0E06141F00071416008BD3A
:100770000010024000000140F0B40E4B1B680C4614
:10078000C3F30223C3F10705042D00D90425191D65
:10079000072901D2002300E0DB1E012606FA05F13D
:1007A000491E214099409E40761E16403143F0BCC0
:1007B00000F02ABE0CED00E0064900F007020868D0
:1007C0004FF6FF03184040EA0220034A1043086036
:1007D000704700000CED00E00000FA052DE9F0473D
:1007E0000F46050061D0434E306800F00700B84264
:1007F00009D2306820F0070038433060306800F0DC
:100800000700B84251D128683B4C810712D54007F8
:1008100003D5606840F4E06060602878000703D585
:10082000606840F4605060606068A96820F0F00083
:10083000084360602878C00728D06868012810D075
:100840002168022810D0890700292EDA616821F07A
:10085000030101436160FFF7A7FD804641F288393B
:100860000DE021688903EFE78901EDE7FFF79CFDC3
:10087000A0EB0801494502D90320BDE8F087606874
:10088000696800F00C00B0EB810FEFD1306800F028
:100890000700B8420BD9306820F0070038433060B9
:1008A000306800F00700B84201D00120E5E7287861
:1008B000400705D56068E96820F4E060084360609F
:1008C0002878000706D56068296920F4605040EA5E
:1008D000C100606000F028F86168084AC1F30311A4
:1008E000515CC8400649086006480068FFF706FFEB
:1008F0000020C2E70020024000100240A42C0008A3
:10090000641300205C13002004480549006849680E
:10091000044AC1F30221515CC840704764130020AF
:1009200000100240B42C000812A185B00FC98DE858
:100930000F0014A0144A006804905168134801F095
:100940000C03042B10D0082B0ED1C1F38343C90331
:100950001DF803000AD5516804AAC1F34041515C57
:100960000A4A5043B0FBF1F005B0704708494843CC
:10097000FAE7000002030405060708090A0B0C0D3C
:100980000E0F1010010200000010024000127A0049
:1009900000093D002DE9F84F040070D02078C04DCB
:1009A000C00749D06868C0F38100012807D0686893
:1009B000C0F38100022809D16868C00306D5286801
:1009C000800339D560680028E7D035E06068B0F56D
:1009D000803F0BD010B1B0F5A02F11D0286820F4C3
:1009E00080302860286820F4802002E0286840F4E5
:1009F00080302860606890B1FFF7D6FC06460AE0B8
:100A0000286840F480202860F0E700BFFFF7CCFCA6
:100A1000801B642873D828688003F7D50CE0FFF7A3
:100A2000C3FC064605E000BFFFF7BEFC801B642840
:100A3000F0D828688003F7D420789A4E80074FF0CA
:100A400001094FF0000839D5686810F00C0F07D085
:100A50006868C0F38100022809D16868C00306D421
:100A60002868800714D52069012808D110E0206982
:100A7000B0B1C6F80090FFF797FC074605E00AE121
:100A8000FFF792FCC01B0228C4D828688007F7D55E
:100A90002868616920F0F80040EAC10028600DE094
:100AA000C6F80080FFF780FC074604E0FFF77CFCF7
:100AB000C01B022823D828688007F7D420780007B5
:100AC0002CD57948A169D9B1C0F80090FFF76CFC2A
:100AD000074604E0FFF768FCC01B02280FD8686ACD
:100AE0008007F7D571484FF4FA510068B0FBF1F078
:100AF000009000BF0098411E0091FAD20EE080E005
:100B0000C0F80080FFF750FC074604E0FFF74CFCFC
:100B1000C01B022875D8686A8007F7D42078400780
:100B200060D5E8690027C00008D4E86940F080502B
:100B3000E861E869012700F0805000905C48016896
:100B4000C90513D40168834641F480710160FFF741
:100B50002BFC824606E000BFFFF726FCA0EB0A0054
:100B600064284ED8DBF80000C005F5D5E068012800
:100B70000AD008B1052813D0286A20F001002862A5
:100B8000286A20F0040002E0286A40F00100286290
:100B9000E06841F2883B98B1FFF706FC82460BE023
:100BA000286A40F004002862EEE700BFFFF7FCFB74
:100BB000A0EB0A0159455AD8286A8007F6D50CE0FF
:100BC000FFF7F2FB824605E0FFF7EEFBA0EB0A0120
:100BD00059454CD8286A8007F6D41FB1E86920F03F
:100BE0008050E861E06988B36968C1F38101022936
:100BF00044D00228C6F8608004D0FFF7D5FB044635
:100C000038E034E0FFF7D0FB074604E0FFF7CCFB09
:100C1000C01B02282BD828688001F7D4206AB0F5C1
:100C2000803F05D16868A16820F4003008436860FF
:100C3000D4E908010843696821F474110843686025
:100C4000C6F86090FFF7B0FB044606E025E000BF61
:100C5000FFF7AAFB001B022809D828688001F7D5F6
:100C60001BE000BFFFF7A0FB001B022802D90320F6
:100C7000BDE8F88F28688001F4D40EE00128F7D091
:100C80006868226A00F48031914204D1616A00F4FC
:100C90007010884201D00120EAE70020E8E7000058
:100CA00000100240000042428004424264130020CF
:100CB0000070004010B5401EB0F1807F01D30120CC
:100CC00010BD4FF0E02460610F21601700F09CFB25
:100CD0000020A06107202061002010BDFEE7016810
:100CE0004A69D24352050FD46FF480624A610021F1
:100CF00040F8301F202242738173026942F00402DF
:100D00000261017301207047002070472DE9F8430C
:100D1000044600680D46DDE90897016898461646C6
:100D200041F4807101604B4600224FF001112046D2
:100D3000009700F065F848B120680068C00502D54A
:100D40004FF4007020640320BDE8F883216805F0AB
:100D5000FE0008613B464A461549204600F084F8EB
:100D600088B920684169806900903A464946204622
:100D700000F0C5F848B1206C042804D1206801684F
:100D800041F4007101600120DEE7F5B2B8F1010F16
:100D900009D02168300A08613A464946204600F0E9
:100DA000AEF80028E7D1206805610020CCE70000FC
:100DB0000200010070B516460D4604460DE02046BF
:100DC000FFF78DFF08B1012070BD681C05D0FFF74B
:100DD000EBFA801BA84207D835B120684069C043B0
:100DE0004007ECD4002070BD002044F8300F2021D3
:100DF0006173A073216941F0200121612073E2E752
:100E00002DE9F0471E4690460D460446C1F30747BC
:100E1000DDF8209008E0701C06D0FFF7C5FAA0EBC3
:100E20000900B0420FD876B12068012F18D0806930
:100E300025EA00000004000C14D000214145EAD04E
:100E40000020BDE8F087002044F8300F20216173B6
:100E5000A073216941F02001216120730120F0E796
:100E60004069E5E70121E9E72DE9F0479A46914617
:100E70000E46044600254FF02008C1F3074725E041
:100E800020684069C043400514D42068016841F4DB
:100E90000071016021686FF480604861256384F807
:100EA0003D8084F83E50206C40F00400206484F8BB
:100EB0003C501FE0B9F1FF3F08D0FFF775FAA0EBF7
:100EC0000A0149450CD8B9F1000F09D02068012F5B
:100ED00013D0806926EA00000004000C0BD0CFE795
:100EE00044F8305F84F80D80A573206940F020003D
:100EF000206125730120BDE8F0874069EAE770B5FD
:100F000016460D4604460DE02046FFF7E8FE08B100
:100F1000012070BD681C05D0FFF746FA801BA8426F
:100F200007D835B120684069C0430006ECD40020E2
:100F300070BD002044F8300F20216173A073216937
:100F400041F0200121612073E2E700000D4808B55F
:100F5000816941F020018161816901F020010091E6
:100F6000816941F004018161816901F0040100910E
:100F7000816941F008018161806900F008000090FA
:100F800008BD0000001002400D4810B50B4901607B
:100F90000C49416000214FF480428160C0E9031296
:100FA00041618161C1610162FFF704FA002803D049
:100FB000BDE81040FFF707B910BD00000054004025
:100FC00068170020A0860100FEE7704730B40021BA
:100FD000084B0A465FF0000003EBC004401CC0B29F
:100FE00062548028F8D3491CC9B20829F2D330BC16
:100FF00000F09AB868130020CA0801F00703012125
:101000009940044B03EBC003985C61EA0000C043C5
:10101000985470476813002010B57F2816D83F29D0
:1010200014D80723A3EBD10301F00701C1F1070492
:101030000121A140064CDBB204EBC000002AC25CD7
:10104000C9B201D00A4300E08A43C25410BD000077
:101050006813002010B50021AE2000F07EF90021B9
:10106000D52000F07AF90021502000F076F9002117
:10107000A82000F072F900213F2000F06EF9002155
:10108000D32000F06AF90021084600F066F900213B
:10109000402000F062F900218D2000F05EF900216F
:1010A000142000F05AF90021202000F056F9002108
:1010B000022000F052F90021A12000F04EF9002199
:1010C000C02000F04AF90021DA2000F046F90021A2
:1010D000122000F042F90021812000F03EF90021A9
:1010E000EF2000F03AF90021D92000F036F9002174
:1010F000F12000F032F90021DB2000F02EF9002170
:10110000302000F02AF90021A42000F026F9002167
:10111000A62000F022F90021AF2000F01EF9BDE862
:101120001040FFF753BF000070B5114E002400BF00
:1011300004F1B000C0B2002100F00FF90021084610
:1011400000F00BF90021102000F007F95FF0000516
:1011500006EBC5000121005D00F0FFF86D1CEDB24B
:10116000802DF5D3641CE4B2082CE1D370BD0000DF
:10117000681300202DE9FF4F1D460C46894658078D
:1011800000D0012000EBD50069084843203A00F068
:10119000FF0A02F0FF0B002639E00C2D0FD0102DB6
:1011A00011D0182D35D11C490BEBCB0001EB800081
:1011B0004FF00008875D380609D50D9A0AE00BEB61
:1011C0004B001649F2E7164901EB0B10F0E70D98BA
:1011D00090B1002221460098FFF71EFF7806641C9C
:1011E000070EE4B2A4EB0900A84207D100984C46D0
:1011F000401CC0B2009008E00122EBE708F10100BA
:1012000000F0FF08B8F1080FD5D3761CF6B25645AA
:10121000C3D3BDE8FF8F0000481F0008E414000896
:10122000581900082DE9FF4F83B081460020CDE911
:1012300001091C4688468B464FEAD30A53E00598BD
:101240000199604301EBD000C0B20090481CC0B2CD
:101250000025019045E0102C13D0182C16D0202C1E
:101260001CD0402C44D12449009801EB4020002799
:10127000465DF00717D0012241464846FFF7CCFEF5
:1012800015E01E49009801EB0010F0E700981B499B
:1012900000EBC000803101EBC000E8E7184900987E
:1012A00001EBC010E3E741464846FFF7A5FE7F1C6F
:1012B000760808F10100FFB200F0FF08082FD8D32C
:1012C00009F10100029900F0FF09A9EB0100A04219
:1012D00004D10BF10800894600F0FF0B6D1CD846C5
:1012E000EDB2A542B7D3BAF1010101F0FF0AA6D2CF
:1012F00007B0BDE8F08F0000580300200000002078
:10130000580100202DE9F84F04461F46802016465C
:101310000D46A0EB5709C3F140084FF0010A16E053
:10132000A14502D20024E819C5B2A84503DA002479
:101330002546FFF74BFECDF800A032783B46294604
:101340002046FFF717FF04EB5700C4B2761C307835
:1013500020385E28E4D9BDE8F88F09B100F042B822
:1013600000F02EB870477047FFF7AEB930B58FB0B8
:1013700028216846FEF7DDFE14210AA8FEF7D9FEF3
:1013800001210804CDE900100024029402250491F3
:10139000CDE907504FF4E01009906846FFF7FAFADC
:1013A0000F20CDE90A056802CDE90C4002210AA808
:1013B0000E94FFF713FA0FB030BD7047FEE7000040
:1013C00001B584B0012104A864228DE807000B4612
:1013D000002278210248FFF7B1F805B000BD0000F7
:1013E0006817002001B584B0012104A864228DE8AB
:1013F00007000B46402278210248FFF79FF805B00E
:1014000000BD0000681700200907090E002804DB52
:1014100000F1E02080F80014704700F00F0000F1A8
:10142000E02080F8141D704702E008C8121F08C1B0
:10143000002AFAD170477047002001E001C1121F55
:10144000002AFBD17047000008B5FFF745F9FFF708
:101450008DFFFFF77BFDFFF797FDFFF7FBFDFFF724
:10146000B5FD01240121102319A20846FFF74AFF08
:101470001023022200212020FFF7D4FE1023032294
:1014800000213020FFF7CEFE10233A2200213E201B
:101490000094FFF76FFE1023512200214A20009490
:1014A000FFF768FE0022102311465620FFF7BAFE10
:1014B0001023012200216620FFF7B4FE102306A2AC
:1014C00028212D20FFF71EFFFFF72EFECAE70000A0
:1014D0004353444E00000000323032322E362E315B
:1014E00000000000000000000000000000000000FC
:1014F000000000003F40000000000000000030003D
:10150000400030004000000009000BC03D000BC04F
:101510003D00090018C024407FE0224031800000D7
:10152000180024C01B000D803240018003801C4045
:1015300027401C80074000401000600000000000B1
:10154000000000000000000000001F80204040203C
:101550000000402020401F8000000000090006001D
:101560001F80060009000000040004003F80040002
:1015700004000000001000600000000000000000F7
:101580000400040004000400040000000000004007
:101590000000000000000000002001C0060038002C
:1015A000400000001F802040204020401F8000009D
:1015B000000010403FC000400000000018C0214063
:1015C0002240244018400000108020402440244045
:1015D0001B80000002000D0011003FC00140000010
:1015E0003C80244024402440238000001F8024406D
:1015F00024403440038000003000200027C0380021
:10160000200000001B802440244024401B80000058
:101610001C0022C0224022401F8000000000000069
:10162000084000000000000000000000046000000E
:1016300000000000000004000A001100208040406B
:1016400009000900090009000900000000004040ED
:10165000208011000A00040018002000234024000C
:10166000180000001F802040274029401F40000034
:10167000004007C039000F0001C0004020403FC0BB
:10168000244024401B8000001F8020402040204038
:101690003080000020403FC0204020401F800000DC
:1016A00020403FC024402E4030C0000020403FC0BA
:1016B00024402E00300000000F0010802040224007
:1016C0003380020020403FC0040004003FC020409F
:1016D000204020403FC020402040000000602020EB
:1016E00020203FC02000200020403FC024400B00AD
:1016F00030C0204020403FC020400040004000C09B
:101700003FC03C0003C03C003FC0000020403FC041
:101710000C4023003FC020001F802040204020407C
:101720001F80000020403FC024402400180000001B
:101730001F802140214020E01FA0000020403FC02A
:101740002440260019C0004018C0244024402240F4
:1017500031800000300020403FC0204030000000B9
:1017600020003F80004000403F80200020003E00DD
:1017700001C0070038002000380007C03C0007C047
:1017800038000000204039C0060039C02040000069
:101790002000384007C0384020000000304021C001
:1017A0002640384020C00000000000007FE04020BC
:1017B00040200000000070000C000380004000008A
:1017C0000000402040207FE00000000000002000DA
:1017D0004000200000000000001000100010001069
:1017E0000010001000000000400000000000000099
:1017F000000002800540054003C0004020003FC0BB
:1018000004400440038000000000038004400440C2
:101810000640000000000380044024403FC0004018
:101820000000038005400540034000000000044024
:101830001FC0244024402000000002E00550055055
:101840000650042020403FC00440040003C0004074
:101850000000044027C000400000000000100010FD
:10186000041027E00000000020403FC001400700B6
:1018700004C00440204020403FC000400040000021
:1018800007C0040007C0040003C00000044007C0F4
:101890000440040003C000400000038004400440F2
:1018A00003800000041007F004500440038000008F
:1018B000000003800440045007F00010044007C0FB
:1018C00002400400040000000000064005400540FE
:1018D00004C00000000004001F800440004000001D
:1018E000040007800040044007C0004004000700D7
:1018F00004C0018006000400060001C0070001C00A
:1019000006000000044006C0010006C004400000BC
:101910000410071004E001800600040000000440E9
:1019200005C00640044000000000000004007BE009
:1019300040200000000000000000FFF00000000058
:10194000000040207BE00400000000004000800018
:1019500040002000200040000000000000000000C7
:1019600000000000000000000000000000001FCC8C
:10197000000C0000000000000000080030006000C3
:101980000800300060000000022003FC1E2002203E
:1019900003FC1E200220000000000E1811043FFF6F
:1019A00010840C78000000000F0010840F3800C075
:1019B000077818840078000000780F8410C4112480
:1019C0000E9800E400840008080068007000000021
:1019D000000000000000000000000000000007E020
:1019E00018182004400200000000400220041818CB
:1019F00007E00000000000000240024001800FF0FC
:101A000001800240024000000080008000800FF84A
:101A100000800080008000000001000D000E00002A
:101A20000000000000000000000000800080008036
:101A300000800080008000800000000C000C00008E
:101A40000000000000000000000000060018006018
:101A50000180060018002000000007F008081004AC
:101A60001004080807F000000000080408041FFC28
:101A7000000400040000000000000E0C10141024EC
:101A8000104411840E0C000000000C181004110406
:101A9000110412880C700000000000E003200424F0
:101AA00008241FFC0024000000001F98108411046B
:101AB0001104108810700000000007F0088811045D
:101AC000110418880070000000001C00100010FCB9
:101AD00013001C001000000000000E381144108498
:101AE000108411440E38000000000700088C1044D8
:101AF0001044088807F00000000000000000030CFC
:101B0000030C0000000000000000000000010106BE
:101B100000000000000000000000008001400220E2
:101B200004100808100400000220022002200220F5
:101B30000220022002200000000010040808041007
:101B4000022001400080000000000E001200100C76
:101B5000106C10800F00000003E00C1813E4142434
:101B600017C4082807D000000004003C03C41C4030
:101B7000074000E4001C000410041FFC11041104C1
:101B800011040E880070000003E00C18100410040B
:101B9000100410081C10000010041FFC1004100496
:101BA0001004080807F0000010041FFC11041104C1
:101BB00017C410040818000010041FFC11041100C1
:101BC00017C010000800000003E00C1810041004F7
:101BD00010441C780040000010041FFC108400809A
:101BE000008010841FFC10040000100410041FFC6F
:101BF0001004100400000000000300011001100197
:101C00001FFE10001000000010041FFC11040380D0
:101C10001464181C1004000010041FFC10040004BD
:101C200000040004000C000010041FFC1F0000FC56
:101C30001F001FFC1004000010041FFC0C04030014
:101C400000E010181FFC100007F008081004100432
:101C50001004080807F0000010041FFC1084108016
:101C6000108010800F00000007F0081810241024C6
:101C7000101C080A07F2000010041FFC11041100D8
:101C800011C011300E0C000400000E1C1104108451
:101C9000108410441C3800001800100010041FFCB1
:101CA000100410001800000010001FF810040004B9
:101CB000000410041FF8100010001E0011E0001CAA
:101CC000007013801C0010001FC0103C00E01F00BB
:101CD00000E0103C1FC000001004180C163401C0B6
:101CE00001C01634180C100410001C00130400FC72
:101CF00013041C00100000000804101C1064108461
:101D000013041C04101800000000000000007FFEF7
:101D10004002400240020000000030000C0003803E
:101D20000060001C0003000000004002400240026E
:101D30007FFE0000000000000000000020004000C6
:101D400040004000200000000001000100010001EF
:101D500000010001000100010000400040002000DF
:101D60000000000000000000000000980124014471
:101D70000144014400FC000410001FFC0088010421
:101D80000104008800700000000000700088010459
:101D900001040104008800000000007000880104B4
:101DA000010411081FFC0004000000F80144014474
:101DB0000144014400C800000000010401040FFCBC
:101DC0001104110411001800000000D60129012996
:101DD000012901C90106000010041FFC0084010054
:101DE0000100010400FC000400000104190419FCB6
:101DF00000040004000000000000000300010101D5
:101E0000190119FE0000000010041FFC002400400E
:101E100001B4010C010400000000100410041FFCB8
:101E20000004000400000000010401FC01040100A2
:101E300001FC0104010000FC010401FC008401001C
:101E40000100010400FC0004000000F8010401048A
:101E50000104010400F80000010101FF00850104F4
:101E60000104008800700000000000700088010478
:101E70000104010501FF00010104010401FC0084CB
:101E80000104010001800000000000CC01240124B5
:101E9000012401240198000000000100010007F85E
:101EA0000104010400000000010001F80004000426
:101EB0000004010801FC0004010001800170000C15
:101EC000001001600180010001F0010C003001C030
:101ED0000030010C01F0010000000104018C0074CD
:101EE0000170018C01040000010101810171000EEB
:101EF000001801600180010000000184010C013420
:101F000001440184010C00000000000000000000FA
:101F100001003EFC40024002000000000000000002
:101F2000FFFF0000000000000000400240023EFCF5
:101F30000100000000000000000060008000800040
:101F400040004000200020000000000000000000D1
:101F50000000000000000000000000000000000081
:101F60000000000000000000000000000000000071
:101F700000000000000000000000000F80380FFE8D
:101F8000380F803800000000000000000000000052
:101F90000000000000000100000600000C000038F6
:101FA00000003100000600000C0000380000300086
:101FB000000000000000000061800067F807F98061
:101FC0000061800061800061800061800067F80727
:101FD000F98000618000000000000000000001C0E6
:101FE000E003E0F00630080418081FFFFE040E08A6
:101FF0000787F00381E000000000000001F0000608
:102000000C00040408060C7001F9C0000E00003B2F
:10201000E000EC18070808040C180003E0000000BA
:102020000001E00007F003F818041C080417080773
:10203000E1D003C0E00023B0003C0800200800000D
:10204000100000000000000100003100003200001C
:102050001C00000000000000000000000000000064
:102060000000000000000000000000000000000070
:1020700000000000000000007F0001FFC00780F0AA
:102080000C001810000420000200000000000020D6
:1020900000021000040C00180780F001FFC0007F50
:1020A0000000000000000000000000000000000030
:1020B000000000004200006600006600003C0000D6
:1020C000180003FFC0001800003C00006600006616
:1020D00000004200000000000800000800000800A6
:1020E00000080000080001FFC00008000008000010
:1020F00008000008000008000000000000010000C7
:102100003100003200001C00000000000000000050
:1021100000000000000000000000000000000000BF
:10212000080000080000080000080000080000087F
:10213000000008000008000008000008000000007F
:1021400000000000000000003800003800003800E7
:10215000000000000000000000000000000000007F
:102160000000000000000000000600001C000070DD
:10217000000180000E0000380000C0000700001CB5
:102180000000300000000000000000007F8001FF20
:10219000E003807006001804000804000806001818
:1021A00003807001FFE0007F80000000000000005D
:1021B000000001000801000801000803FFF807FF04
:1021C000F8000008000008000008000000000000FF
:1021D00000000001C03802C058040098040118042F
:1021E0000218040418061C1803F81801E0F800008F
:1021F0000000000000000001C0E003C0F00400087F
:1022000004080804080806180803F41801E7F00099
:1022100001E0000000000000000000000300000DCD
:102220000000110000610000810803010807FFF8A9
:102230000FFFF80001080001080000000000000086
:1022400000E007FCD0060808061008061008061073
:1022500008061838060FF00607C00000000000004E
:10226000000000003F8001FFE003843002081804F2
:102270001008041008041008071810030FF00007D6
:10228000C000000000000000000003C000070000C4
:102290000600000600F80607F806180006E000072A
:1022A000000006000000000000000001E1E003F76C
:1022B000F0063410041808041808040C08040C086C
:1022C00006161803F3F001C1E00000000000000052
:1022D000F80003FC30030638040208040208040274
:1022E000080404100308F001FFC0007F0000000094
:1022F00000000000000000000000000000000000DE
:1023000070380070380070380000000000000000D5
:1023100000000000000000000000000000000000BD
:1023200000000000301A00301C0000000000000017
:102330000000000000000000000000000000000895
:1023400000001400002200004100008080010040D5
:102350000200200400100800080000000000000037
:1023600021000021000021000021000021000021A7
:1023700000002100002100002100002100000000D9
:102380000000000000000800080400100200200106
:10239000004000808000410000220000140000087E
:1023A0000000000000000003C00004C000040000A2
:1023B000080038080F380808380810000C300007EB
:1023C000E00003C000000000000000003F8000FFAC
:1023D000E0038070020F1006708804C08804830830
:1023E000047F8802C09003012000FE400000080026
:1023F00000180001F8003E0801C20007020007E2D1
:102400000000FE00001FC80001F8000038000008AE
:1024100004000807FFF807FFF80408080408080488
:10242000080804080806180803F41801E7F000017A
:10243000E0000000000000003F8001FFE00380702A
:102440000200180400080400080400080400100634
:1024500000200780C000000004000807FFF807FF05
:10246000F804000804000804000804001802001022
:1024700003807001FFE0007F800000000400080777
:10248000FFF807FFF804080804080804080804080F
:1024900008043E080400080600180100600000005F
:1024A00004000807FFF807FFF80408080408000400
:1024B0000800040800043E00060000060000018039
:1024C00000000000000000003F8001FFE00380707A
:1024D0000600180400080402080402080203F007BA
:1024E00083F000020000020004000807FFF807FF65
:1024F000F8040808000800000800000800000800B0
:1025000004080807FFF807FFF804000800000000AF
:10251000000004000804000804000807FFF807FF93
:10252000F80400080400080400080000000000008F
:102530000000000000060000070000010400010484
:10254000000104000307FFFE07FFFC040000040075
:102550000004000004000807FFF807FFF8040C0857
:10256000001800003E0004C7800503C80600F804F8
:10257000003804001800000804000807FFF807FFEF
:10258000F804000800000800000800000800000827
:1025900000000800001800006000000004000807A8
:1025A000FFF807800807FC00007FC00003F8000761
:1025B000C000780007800807FFF807FFF80400084C
:1025C00004000807FFF807000803C00000E000004F
:1025D0003800001E000007000001C00400F007FFE3
:1025E000F8040000000000007F8001FFE00380701D
:1025F0000600180400080400080600180300300153
:10260000FFE0007F8000000004000807FFF807FFDC
:10261000F804040804040004040004040004040092
:10262000060C0003F80001F00000000000000000AC
:102630007F8001FFE00380700600880400880400AA
:10264000C806003C03003E01FFE6007F8400000056
:1026500004000807FFF807FFF8040808040800044E
:102660000C00040F00040BC00610F003F03801E06A
:102670000800000800000001E0F803F03006301008
:10268000041808041808040C08040C0802061802B0
:1026900007F00781E0000000018000060000040050
:1026A0000004000004000807FFF807FFF804000812
:1026B0000400000400000600000180000400000780
:1026C000FFE007FFF0040018000008000008000009
:1026D0000800000800000804001007FFE0040000E4
:1026E00004000006000007E00007FE00041FE000F1
:1026F00001F80000380001E0043E0007C0000600B9
:102700000004000004000007E00007FFC0041FF8F9
:102710000007C007F80007FF80043FF80007C00467
:10272000F800070000040000000000040008060094
:102730001807C07805F1C8003E00001F800463E858
:102740000780F806001804000800000004000006D6
:10275000000007800007E008047C08001FF800075D
:10276000F800180804E00807000006000004000054
:102770000000000100080600380400F80403E80423
:102780000F08047C0805F00807C0080700180400BB
:1027900060000000000000000000000000000000D9
:1027A0000000003FFFFE2000022000022000022067
:1027B00000022000020000000000000000000800ED
:1027C0000007000000C0000038000006000001C043
:1027D00000003000000E00000100000000000000BA
:1027E0000000200002200002200002200002200041
:1027F000023FFFFE0000000000000000000000009B
:102800000000000000000000000800001000003080
:102810000000200000300000100000080000000050
:1028200000000000000001000001000001000001A4
:102830000000010000010000010000010000010093
:102840000001000001000001000000000000000085
:102850000020000020000010000010000000000018
:102860000000000000000000000000000000000068
:1028700000F00019F8001B180022080026080024A8
:1028800008002410003FF8001FF80000080000189E
:1028900000000004000007FFF80FFFF00018180008
:1028A0001008002008002008003018001FF0000F5A
:1028B000C00000000000000007C0001FF00018303A
:1028C000002008002008002008003C08001C100020
:1028D00000600000000000000000000007C0001FB2
:1028E000F00038180020080020080020080410100C
:1028F00007FFF80FFFF000001000000000000000CC
:1029000000000007C0001FF0001230002218002253
:1029100008002208003208001E10000E20000000EF
:1029200000000000200000200800200801FFF8033C
:10293000FFF80620080420080420080720000300F0
:102940000000000000000000000E000E6E001FF3EB
:102950000031B10020B10020B1003191001F1300FF
:102960002E1E00200E00300000000004000807FFAB
:10297000F80FFFF8001008002000002000002008D9
:10298000003FF8001FF800000800000000000000F1
:102990000000002008002008002008063FF8063F3D
:1029A000F800000800000800000800000000000017
:1029B00000000000000000000300000300200100F0
:1029C0002001002003063FFE063FFC00000000003F
:1029D0000000000000000004000807FFF80FFFF8E7
:1029E000000188000300002FC00038F800203800E4
:1029F00020080000080000000000000000000400A3
:102A00000804000804000807FFF80FFFF80000089A
:102A1000000008000008000000000000002008007E
:102A20003FF8003FF8001008002000003FF8003F8A
:102A3000F8001008002000003FF8003FF8000008F0
:102A4000000000002008003FF8003FF800100800D8
:102A50001000002000002008003FF8001FF80000D0
:102A6000080000000000000007C0000FF000183050
:102A7000003008002008002008003008001830004E
:102A80000FF00007C0000000000000002001003F20
:102A9000FF003FFF0010110020090020080020085F
:102AA000003038001FF0000FC000000000000000E0
:102AB00007C0001FF0003818002008002008002080
:102AC00009001011001FFF003FFF0000010000007F
:102AD000002008002008002008003FF8003FF80010
:102AE0000808001008002008002000003000003016
:102AF00000000000000000000000000C78001E181C
:102B000000330800230800210800218800219800D4
:102B100030F00038600000000000000020000020BD
:102B20000000200000FFF003FFF80020080020084C
:102B3000002008000030000000000000000000003D
:102B40002000003FF0007FF800001800000800009F
:102B500008002010003FF8007FF000001000000087
:102B6000000000002000003000003C00003F80001A
:102B700023F0000078000070002380003C0000304B
:102B800000002000002000003C00003FE00023F88F
:102B90000000E0002700003E00003FE00021F800B8
:102BA00001E0003E0000200000000000200800209E
:102BB00008003838003E680027800003C8002CF861
:102BC0000038380020180020080000000000000035
:102BD0002000003003003C01003F830023EC000094
:102BE00070002380003C0000200000200000000056
:102BF0000000000000000038080020380020F80025
:102C000023E8002F88003E08003808002018000044
:102C10007000000000000000000000000000000044
:102C20000000000008000014001FF7FC3000062020
:102C30000002000000000000000000000000000092
:102C400000000000000000000000FFFFFF00000087
:102C50000000000000000000000000000000000074
:102C600000002000023000061FF7FC0014000008DE
:102C70000000000000000000000000000000000054
:102C8000000000180000600000400000400000202C
:102C900000001000000800000400000400000C0008
:102CA000001000000000000000000000010203040A
:102CB000060708090000000001020304DC2C0008DC
:102CC00000000020681300006C010008F42D0008CB
:102CD0006813002058080000381400084A20015AE0
:102CE000FF0811100880804020100C032008030CFE
:102CF000102040808022FC22FF3008F01010FF10CE
:102D000010F0258740300F1A1F161B081009293BA9
:102D1000300C24F4545454FF545556F40412FF203C
:102D20000C080B1969090B49897D0B082A08013B1E
:102D300009FA07190F2C404041013A7F06434040F1
:102D40004BC080014BFC84080336C0C03CFF7F4071
:102D5000014AFF07043E40FF7F034A7F700373FC74
:102D6000F86CFFFE02018BFFFF0B0268036C1F1F54
:102D700004017BFFFF0B02741F038C7F3F07FFF8EA
:102D8000F8F0F0702001E60214801AFF0109122CFD
:102D900009132D01FF01C0EDFFFFFE06011AFF011F
:102DA000F915391603FF070201D10C12FFFFFF14BA
:102DB00009101509151601FF01C1EDFFFFFF1801EC
:102DC0001914091015391601FF01D204120201016C
:102DD0001AFF01011209122A01FF01D71AFF01018E
:102DE000FF01FD05FF1F1F0F0F01E03201821013CD
:042DF00024F40000C7
:04000005080000ED02
:00000001FF
