:020000040800F2
:10000000401C0020010100080B0D00084F0C0008E7
:10001000090D0008C30100080B12000800000000D1
:10002000000000000000000000000000B511000802
:10003000C501000800000000D9100008B711000831
:100040001B0100081B0100081B0100081B01000820
:100050001B0100081B0100081B0100081B01000810
:100060001B0100081B0100081B0100081B01000800
:100070001B0100081B0100081B0100081B010008F0
:100080001B0100081B0100081B0100081B010008E0
:100090001B0100081B0100081B0100081B010008D0
:1000A0001B0100081B0100081B0100081B010008C0
:1000B0001B0100081B0100081B0100081B010008B0
:1000C0001B0100081B0100081B0100081B010008A0
:1000D0001B0100081B0100081B0100081B01000890
:1000E0001B0100081B0100081B010008DFF80CD0F1
:1000F00000F02AF8004800474D120008401C00207C
:100100000648804706480047FEE7FEE7FEE7FEE7B1
:10011000FEE7FEE7FEE7FEE7FEE7FEE7091200085E
:10012000ED000008D2B201E000F8012B491EFBD21D
:1001300070470022F6E710B513460A4604461946F2
:10014000FFF7F0FF204610BD064C074D06E0E068C3
:1001500040F0010394E8070098471034AC42F6D30E
:10016000FFF7C8FFAC2A0008CC2A000870B58C182D
:1001700010F8015B15F0070301D110F8013B2A11BB
:1001800006D110F8012B03E010F8016B01F8016BA8
:100190005B1EF9D12B0705D40023521E0DD401F8A4
:1001A000013BFAE710F8013BCB1A921C03E013F86D
:1001B000015B01F8015B521EF9D5A142D8D30020A2
:1001C00070BDFEE77047704770B5044600F004F953
:1001D0000546601C02D004480078044400F0FCF896
:1001E000401BA042FAD370BD581300202DE9F84FF0
:1001F000DFF8B891002409F1040A0AF1040B234640
:100200000F270BF1040EC9E00125A5402A40AA42A0
:100210007DD1674ED1F804C0ACEB0608B44532D0AE
:1002200014DCBCF1030F3AD009DCBCF1000F2AD07A
:10023000BCF1010F1CD0BCF1020F31D11DE0BCF1AB
:10024000110F17D0BCF1120F2AD119E0B8F5881F91
:1002500019D006DCB8F5803F15D0B8F5801F1FD146
:1002600011E0B8F5001F0ED0B8F5041F18D10AE050
:10027000CB6815E0CB681B1D12E0CB6808330FE09C
:10028000CB680C330CE08B682BB1012B4FF00803CB
:1002900003D0456104E0042302E0056100E000238F
:1002A000FF2A01D8064601E000F104064FEA840562
:1002B00001D9A5F12005D6F8008007FA05FC28EA47
:1002C0000C0803FA05F548EA0508C6F800804D68F1
:1002D000ED0062D5374DAE6946F00106AE61AD69FD
:1002E00024F0030605F001050095334D06EB050CDF
:1002F000DCF80850A607360F07FA06F825EA0805C5
:10030000DFF8B880404503D14FF0000817E044E023
:10031000DFF8AC80404502D14FF001080FE0DFF874
:10032000A480404502D14FF0020808E0DFF8988031
:10033000404502D14FF0030801E04FF0040808FAED
:1003400006F848EA0508CCF808804D68D9F800603E
:10035000ED034D4601D5164300E096432E604D68EF
:10036000DAF80060AD03554601D5164300E0964328
:100370002E604D68DBF80060ED025D4601D5164346
:1003800000E096432E604D68DEF80060AD027546D1
:1003900001D5164300E096432E60641C0D682A4682
:1003A000E5407FF431AFBDE8F88F00000004014064
:1003B0000000111000100240000001400008014040
:1003C000000C014000100140001401400AB101611D
:1003D00070470904FBE7000001488068704700008F
:1003E00058130020024881680278114481607047E8
:1003F00058130020074810B5016841F01001016052
:10040000032000F067F8002000F006F800F024F860
:10041000002010BD0020024070B50D4D04464FF481
:100420007A712878B1FBF0F00A490968B1FBF0F065
:1004300000F0F9FB48B9102C07D200222146501ECB
:1004400000F028F800206C6070BD012070BD000035
:1004500058130020641300200C4808B5816941F04E
:1004600001018161816901F001010091C16941F0DF
:100470008051C161C06900F080500090044841681B
:1004800021F0E06141F08071416008BD0010024040
:1004900000000140F0B40E4B1B680C46C3F302236E
:1004A000C3F10705042D00D90425191D072901D220
:1004B000002300E0DB1E012606FA05F1491E21405B
:1004C00099409E40761E16403143F0BC00F09EBE1F
:1004D0000CED00E0064900F0070208684FF6FF0344
:1004E000184040EA0220034A1043086070470000A9
:1004F0000CED00E00000FA052DE9F0470F4605007D
:1005000061D0434E306800F00700B84209D230682D
:1005100020F0070038433060306800F00700B84230
:1005200051D128683B4C810712D5400703D560683C
:1005300040F4E06060602878000703D5606840F40C
:10054000605060606068A96820F0F0000843606057
:100550002878C00728D06868012810D021680228B0
:1005600010D0890700292EDA616821F003010143C8
:100570006160FFF731FF804641F288390DE0216864
:100580008903EFE78901EDE7FFF726FFA0EB0801FC
:10059000494502D90320BDE8F0876068696800F02A
:1005A0000C00B0EB810FEFD1306800F00700B842CB
:1005B0000BD9306820F0070038433060306800F015
:1005C0000700B84201D00120E5E72878400705D5AB
:1005D0006068E96820F4E0600843606028780007FC
:1005E00006D56068296920F4605040EAC100606067
:1005F00000F018F86168084AC1F30311515CC84063
:100600000649086006480068FFF706FF0020C2E7B9
:1006100000200240001002409C2A000864130020C1
:100620005C13002012A185B00FC98DE80F0014A043
:10063000144A006804905168134801F00C03042B1D
:1006400010D0082B0ED1C1F38343C9031DF803005A
:100650000AD5516804AAC1F34041515C0A4A50438B
:10066000B0FBF1F005B0704708494843FAE70000D5
:1006700002030405060708090A0B0C0D0E0F1010E3
:10068000010200000010024000127A0000093D0043
:100690002DE9F84F040070D02078C04DC00749D034
:1006A0006868C0F38100012807D06868C0F3810042
:1006B000022809D16868C00306D52868800339D5A7
:1006C00060680028E7D035E06068B0F5803F0BD067
:1006D00010B1B0F5A02F11D0286820F48030286028
:1006E000286820F4802002E0286840F480302860E8
:1006F000606890B1FFF770FE06460AE0286840F493
:1007000080202860F0E700BFFFF766FE801B6428AA
:1007100073D828688003F7D50CE0FFF75DFE064626
:1007200005E000BFFFF758FE801B6428F0D828685A
:100730008003F7D420789A4E80074FF001094FF0DC
:10074000000839D5686810F00C0F07D06868C0F34E
:100750008100022809D16868C00306D42868800790
:1007600014D52069012808D110E02069B0B1C6F87D
:100770000090FFF731FE074605E00AE1FFF72CFE87
:10078000C01B0228C4D828688007F7D5286861698B
:1007900020F0F80040EAC10028600DE0C6F80080B3
:1007A000FFF71AFE074604E0FFF716FEC01B0228FB
:1007B00023D828688007F7D4207800072CD57948FB
:1007C000A169D9B1C0F80090FFF706FE074604E022
:1007D000FFF702FEC01B02280FD8686A8007F7D512
:1007E00071484FF4FA510068B0FBF1F0009000BF7F
:1007F0000098411E0091FAD20EE080E0C0F800801F
:10080000FFF7EAFD074604E0FFF7E6FDC01B0228FC
:1008100075D8686A8007F7D42078400760D5E86902
:100820000027C00008D4E86940F08050E861E8691A
:10083000012700F0805000905C480168C90513D47E
:100840000168834641F480710160FFF7C5FD82466F
:1008500006E000BFFFF7C0FDA0EB0A0064284ED8F9
:10086000DBF80000C005F5D5E06801280AD008B122
:10087000052813D0286A20F001002862286A20F099
:10088000040002E0286A40F001002862E06841F2BA
:10089000883B98B1FFF7A0FD82460BE0286A40F044
:1008A00004002862EEE700BFFFF796FDA0EB0A0107
:1008B00059455AD8286A8007F6D50CE0FFF78CFD19
:1008C000824605E0FFF788FDA0EB0A0159454CD8A8
:1008D000286A8007F6D41FB1E86920F08050E861EB
:1008E000E06988B36968C1F38101022944D0022814
:1008F000C6F8608004D0FFF76FFD044638E034E0AE
:10090000FFF76AFD074604E0FFF766FDC01B0228FB
:100910002BD828688001F7D4206AB0F5803F05D134
:100920006868A16820F4003008436860D4E90801D1
:100930000843696821F4741108436860C6F8609040
:10094000FFF74AFD044606E025E000BFFFF744FD3F
:10095000001B022809D828688001F7D51BE000BFDA
:10096000FFF73AFD001B022802D90320BDE8F88FEB
:1009700028688001F4D40EE00128F7D06868226A64
:1009800000F48031914204D1616A00F47010884211
:1009900001D00120EAE70020E8E700000010024053
:1009A0000000424280044242641300200070004074
:1009B00070B5040009D0606A002540B12561656109
:1009C000A56294F8510040B10CE0012070BD606850
:1009D000B0F5827FF4D0E561F2E784F8505020460C
:1009E00000F040F8022084F851002068016821F0EE
:1009F00040010160A088218900F4827001F4044163
:100A00000843A18901F400610843217C01F002013F
:100A10000843217D01F001010843218B01F400719D
:100A20000843217F01F03801084394F8201001F0B9
:100A300080010843218D01F40051084321680860BA
:100A4000A069042101EA1040216848602068C1695A
:100A500021F40061C1616565012084F85100002026
:100A600070BD000000B585B0002100910191029198
:100A7000039100680F4988421AD10F48816941F4F7
:100A800080518161816901F480510491816941F053
:100A9000040181618069694600F004000490A0208F
:100AA000009002200190032003900448FFF79EFB72
:100AB00005B000BD003001400010024000080140B8
:100AC0002DE9F84F044690F8500000271D461646C1
:100AD000894601280DD04FF0010B84F850B0FFF784
:100AE0007BFC804694F85100BA46012804D00227C6
:100AF00093E00220BDE8F88FB9F1000F73D0002E0B
:100B000071D0032084F85100C4F854A0C4F8309088
:100B1000A686E686C4F838A0A4F83CA0A4F83EA0B7
:100B2000C4F844A0C4F840A0A068B0F5004F09D1B3
:100B30002068016821F0400101602068016841F4EB
:100B40008041016020680168490603D4016841F0D2
:100B500040010160E068B0F5006F606803D030B319
:100B6000012E24D041E008B1012E1CD1206B216858
:100B70000088C86006E020688168890709D5216B74
:100B80000988C160206B801C2063E08E401EE086D7
:100B900009E0FFF721FCA0EB0800A84202D3681C83
:100BA00001D031E07DB3E08E0028E4D120E0206B5D
:100BB00021680078087306E020688168890709D5F4
:100BC000216B09780173206B401C2063E08E401E6E
:100BD000E0860AE0FFF700FCA0EB0800A84203D380
:100BE000681C02D010E017E06DB1E08E0028E3D160
:100BF00042462946204600F070FA08B12020606580
:100C0000A06818B106E0FFE7032706E02068C16886
:100C100080680090606D00B1012784F851B084F8BD
:100C200050A0384666E710B5401EB0F1807F01D372
:100C3000012010BD4FF0E02460610F21601700F02B
:100C4000E5FA0020A06107202061002010BDFEE72A
:100C500030B585B0002418480094019402940394A0
:100C6000816941F020018161816901F020010491D5
:100C7000816941F004018161816901F004010491FD
:100C8000816941F00801816180690C4D00F0080024
:100C9000049000221C212846FFF798FB1C2000909E
:100CA0000120CDE901040220039069462846FFF7A0
:100CB0009DFA05B030BD0000001002400008014060
:100CC000104810B50E4901604FF482714160002157
:100CD0008160C1604FF400720161C0E90512082211
:100CE000C0E90721416281620A21C162FFF760FE0B
:100CF000002803D0BDE81040FFF765BA10BD000022
:100D000000300140E8170020FEE7704730B40021B2
:100D1000084B0A465FF0000003EBC004401CC0B261
:100D200062548028F8D3491CC9B20829F2D330BCD8
:100D300000F0A6B868130020CA0801F007030121DB
:100D40009940044B03EBC003985C61EA0000C04388
:100D50009854704768130020CA0801F00703012166
:100D60009940034B03EBC000835C0B4383547047F3
:100D70006813002010B5414C002210212046FFF7D7
:100D800025FBC820FFF720FA012210212046FFF79B
:100D90001DFB0021AE2000F079F90021084600F08B
:100DA00075F90021102000F071F90021402000F0B9
:100DB0006DF90021812000F069F90021CF2000F0B9
:100DC00065F90021A12000F061F90021C82000F0A0
:100DD0005DF90021A62000F059F90021A82000F0BB
:100DE00055F900213F2000F051F90021D32000F0F7
:100DF0004DF90021084600F049F90021D52000F006
:100E000045F90021802000F041F90021D92000F0AF
:100E10003DF90021F12000F039F90021DA2000F03D
:100E200035F90021122000F031F90021DB2000F01B
:100E30002DF90021402000F029F90021202000F0A8
:100E400025F90021022000F021F900218D2000F079
:100E50001DF90021142000F019F90021A42000F050
:100E600015F90021A62000F011F90021AF2000F0B3
:100E70000DF9BDE81040FFF749BF00000008014030
:100E800070B5114E002400BF04F1B000C0B20021C3
:100E900000F0FCF80021084600F0F8F800211020CE
:100EA00000F0F4F85FF0000506EBC5000121005DDD
:100EB00000F0ECF86D1CEDB2802DF5D3641CE4B2AB
:100EC000082CE1D370BD0000681300202DE9FF4F0E
:100ED0001D460C468946580700D0012000EBD5007E
:100EE00069084843203A00F0FF0A02F0FF0B002691
:100EF00035E00C2D12D0102D14D0182D31D11A49F7
:100F00000BEBCB0001EB80004FF00008875D214622
:100F1000380600980AD5FFF71FFF09E00BEB4B00DE
:100F20001249EFE7124901EB0B10EDE7FFF704FF61
:100F30007806641C070EE4B2A4EB0900A84205D1B0
:100F400000984C46401CC0B2009006E008F1010039
:100F500000F0FF08B8F1080FD9D3761CF6B2564559
:100F6000C7D3BDE8FF8F0000401D0008DC12000859
:100F7000501700082DE9FF4F83B081460020CDE9CE
:100F800001091C4688468B464FEAD30A50E0059873
:100F90000199604301EBD000C0B20090481CC0B280
:100FA0000025019042E0102C12D0182C15D0202CD6
:100FB0001BD0402C41D12249009801EB4020002752
:100FC000465D4146F007484614D0FFF7C5FE13E0E2
:100FD0001C49009801EB0010F1E70098194900EB5B
:100FE000C000803101EBC000E9E71749009801EB30
:100FF000C010E4E7FFF7A0FE7F1C760808F10100AF
:10100000FFB200F0FF08082FDBD309F101000299BD
:1010100000F0FF09A9EB0100A04204D10BF1080088
:10102000894600F0FF0B6D1CD846EDB2A542BAD33D
:10103000BAF1010101F0FF0AA9D207B0BDE8F08FB3
:101040005803002000000020580100202DE9F04145
:101050001E46154688460446C3F180070FE0334616
:1010600041462046FFF732FF04EB5600C4B2A742C8
:1010700004DA08EB0600022400F0FF086D1C2A7851
:10108000A2F120005E28EAD9BDE8F08173B5104DC9
:101090006C4609B1012200E0002208212846FFF732
:1010A00095F9002204212846FFF790F9C823012270
:1010B00021460848FFF704FD012204212846FFF7D6
:1010C00085F9012208212846FFF780F97CBD000040
:1010D00000080140E8170020704738B50B46009221
:1010E00004460022802100F009F8002804D0606D39
:1010F00040F020006065032038BD00002DE9F84372
:101100001E46914688460446089DFFF765F9401B38
:10111000351AFFF761F9074625480068C0F3CB3060
:10112000684338E0701C37D0FFF756F9C01BA8425F
:1011300003D215B1009860B32CE02068416821F01B
:10114000E00141606068B0F5827F0BD1A068B0F526
:10115000004F02D0B0F5806F04D12068016821F003
:1011600040010160A06AB0F5005F09D12068016804
:1011700021F4005101602068016841F400510160D0
:10118000012084F85100002084F850000320BDE8BD
:10119000F8830025401E00902068816838EA01002D
:1011A00004D000214945BDD10020F0E70121F9E735
:1011B000641300207047FFF715B930B58FB02821B0
:1011C0006846FEF7B6FF14210AA8FEF7B2FF012118
:1011D0000804CDE900100024029402250491CDE911
:1011E00007504FF4E01009906846FFF751FA0F20BE
:1011F000CDE90A056802CDE90C4002210AA80E9447
:10120000FFF77AF90FB030BD7047FEE70907090E06
:10121000002804DB00F1E02080F80014704700F0A3
:101220000F0000F1E02080F8141D704702E008C8AC
:10123000121F08C1002AFAD170477047002001E050
:1012400001C1121F002AFBD170470000FFF7D2F83E
:10125000FFF7B3FFFFF7FCFCFFF732FDFFF78AFD56
:10126000FFF70EFE0021102317A20846FFF7EEFE3F
:101270001023022200212020FFF77CFE10230322EE
:1012800000213020FFF776FE10233A2200213E2075
:10129000FFF71CFE1023512200214A20FFF716FE03
:1012A0000022102311465620FFF764FE102301226E
:1012B00000216620FFF75EFE102305A228212D20C5
:1012C000FFF7C4FECCE700004353444E000000008B
:1012D000323032322E332E3139000000000000004F
:1012E0000000000000000000000000003F4000007F
:1012F000000000000000300040003000400000000E
:1013000009000BC03D000BC03D00090018C024407F
:101310007FE0224031800000180024C01B000D80B7
:101320003240018003801C4027401C800740004061
:10133000100060000000000000000000000000003D
:1013400000001F80204040200000402020401F80DF
:1013500000000000090006001F80060009000000D0
:10136000040004003F80040004000000001000603E
:10137000000000000000000004000400040004005D
:101380000400000000000040000000000000000019
:10139000002001C006003800400000001F802040EF
:1013A000204020401F800000000010403FC000404F
:1013B0000000000018C021402240244018400000D6
:1013C00010802040244024401B80000002000D00BB
:1013D00011003FC0014000003C80244024402440D4
:1013E000238000001F8024402440344003800000FC
:1013F0003000200027C03800200000001B8024405F
:10140000244024401B8000001C0022C022402240B7
:101410001F800000000000000840000000000000E5
:101420000000000004600000000000000000040054
:101430000A0011002080404009000900090009004D
:101440000900000000004040208011000A00040054
:101450001800200023402400180000001F802040B6
:10146000274029401F400000004007C039000F00FE
:1014700001C0004020403FC0244024401B800000A9
:101480001F802040204020403080000020403FC08E
:10149000204020401F80000020403FC024402E40BC
:1014A00030C0000020403FC024402E00300000002B
:1014B0000F001080204022403380020020403FC0B7
:1014C000040004003FC02040204020403FC0204096
:1014D000204000000060202020203FC0200020008D
:1014E00020403FC024400B0030C0204020403FC07F
:1014F00020400040004000C03FC03C0003C03C0012
:101500003FC0000020403FC00C4023003FC02000EF
:101510001F802040204020401F80000020403FC00E
:1015200024402400180000001F802140214020E0BA
:101530001FA0000020403FC02440260019C00040EA
:1015400018C0244024402240318000003000204058
:101550003FC020403000000020003F80004000409D
:101560003F80200020003E0001C00700380020001E
:10157000380007C03C0007C038000000204039C0D8
:10158000060039C0204000002000384007C0384025
:1015900020000000304021C02640384020C000001C
:1015A000000000007FE040204020000000007000AC
:1015B0000C000380004000000000402040207FE03D
:1015C000000000000000200040002000000000009B
:1015D00000100010001000100010001000000000AB
:1015E00040000000000000000000028005400540AF
:1015F00003C0004020003FC00440044003800000BE
:101600000000038004400440064000000000038006
:10161000044024403FC000400000038005400540D6
:1016200003400000000004401FC02440244020006C
:10163000000002E0055005500650042020403FC045
:101640000440040003C000400000044027C00040E4
:101650000000000000100010041027E0000000004F
:1016600020403FC00140070004C00440204020400B
:101670003FC000400040000007C0040007C0040055
:1016800003C00000044007C00440040003C0004041
:10169000000003800440044003800000041007F0B1
:1016A0000450044003800000000003800440045004
:1016B00007F00010044007C00240040004000000CE
:1016C000000006400540054004C000000000040082
:1016D0001F800440004000000400078000400440D8
:1016E00007C000400400070004C001800600040099
:1016F000060001C0070001C006000000044006C04B
:10170000010006C0044000000410071004E001803E
:10171000060004000000044005C00640044000002C
:101720000000000004007BE04020000000000000FA
:101730000000FFF000000000000040207BE00400FB
:101740000000000040008000400020002000400019
:101750000000000000000000000000000000000089
:101760000000000000001FCC000C00000000000082
:101770000000080030006000080030006000000039
:10178000022003FC1E20022003FC1E200220000079
:1017900000000E1811043FFF10840C7800000000B8
:1017A0000F0010840F3800C00778188400780000FC
:1017B00000780F8410C411240E9800E400840008FF
:1017C0000800680070000000000000000000000039
:1017D00000000000000007E018182004400200008C
:1017E000000040022004181807E00000000000007C
:1017F0000240024001800FF00180024002400000E0
:101800000080008000800FF80080008000800000D1
:101810000001000D000E00000000000000000000AC
:101820000000008000800080008000800080008038
:101830000000000C000C0000000000000000000090
:10184000000000060018006001800600180020005B
:10185000000007F0080810041004080807F0000052
:101860000000080408041FFC00040004000000003D
:1018700000000E0C10141024104411840E0C0000F3
:1018800000000C1810041104110412880C700000E0
:10189000000000E00320042408241FFC00240000B2
:1018A00000001F98108411041104108810700000AB
:1018B000000007F008881104110418880070000067
:1018C00000001C00100010FC13001C0010000000A1
:1018D00000000E3811441084108411440E380000AA
:1018E00000000700088C10441044088807F000002E
:1018F000000000000000030C030C000000000000CA
:1019000000000000000101060000000000000000CF
:1019100000000080014002200410080810040000AC
:1019200002200220022002200220022002200000C9
:10193000000010040808041002200140008000008C
:1019400000000E001200100C106C10800F00000040
:1019500003E00C1813E4142417C4082807D000006F
:101960000004003C03C41C40074000E4001C0004C9
:1019700010041FFC1104110411040E8800700000F3
:1019800003E00C1810041004100410081C100000D0
:1019900010041FFC100410041004080807F00000D5
:1019A00010041FFC1104110417C4100408180000CF
:1019B00010041FFC1104110017C0100008000000E3
:1019C00003E00C181004100410441C7800400000C0
:1019D00010041FFC10840080008010841FFC100481
:1019E0000000100410041FFC10041004000000008C
:1019F00000030001100110011FFE10001000000084
:101A000010041FFC110403801464181C100400004F
:101A100010041FFC1004000400040004000C00006B
:101A200010041FFC1F0000FC1F001FFC100400001E
:101A300010041FFC0C04030000E010181FFC100031
:101A400007F00808100410041004080807F000004C
:101A500010041FFC10841080108010800F00000004
:101A600007F0081810241024101C080A07F20000C0
:101A700010041FFC1104110011C011300E0C0004E1
:101A800000000E1C11041084108410441C38000047
:101A90001800100010041FFC1004100018000000B3
:101AA00010001FF810040004000410041FF81000B8
:101AB00010001E0011E0001C007013801C001000BC
:101AC0001FC0103C00E01F0000E0103C1FC00000E1
:101AD0001004180C163401C001C01634180C100480
:101AE00010001C00130400FC13041C001000000074
:101AF0000804101C1064108413041C041018000047
:101B00000000000000007FFE400240024002000092
:101B1000000030000C0003800060001C0003000087
:101B200000004002400240027FFE00000000000072
:101B300000000000200040004000400020000000A5
:101B4000000100010001000100010001000100018D
:101B500000004000400020000000000000000000E5
:101B600000000098012401440144014400FC0004E9
:101B700010001FFC008801040104008800700000B0
:101B800000000070008801040104010400880000C6
:101B90000000007000880104010411081FFC00040B
:101BA000000000F8014401440144014400C8000061
:101BB0000000010401040FFC1104110411001800BD
:101BC000000000D601290129012901C901060000F0
:101BD00010041FFC008401000100010400FC00044B
:101BE00000000104190419FC0004000400000000B6
:101BF0000000000300010101190119FE00000000AE
:101C000010041FFC0024004001B4010C010400007A
:101C10000000100410041FFC000400040000000079
:101C2000010401FC0104010001FC0104010000FCAD
:101C3000010401FC008401000100010400FC000417
:101C4000000000F8010401040104010400F8000090
:101C5000010101FF008501040104008800700000FB
:101C600000000070008801040104010501FF00016B
:101C70000104010401FC0084010401000180000052
:101C8000000000CC0124012401240124019800005B
:101C900000000100010007F8010401040000000039
:101CA000010001F8000400040004010801FC000424
:101CB000010001800170000C001001600180010032
:101CC00001F0010C003001C00030010C01F00100F6
:101CD00000000104018C00740170018C01040000FB
:101CE000010101810171000E0018016001800100F5
:101CF00000000184010C013401440184010C000046
:101D0000000000000000000001003EFC4002400214
:101D10000000000000000000FFFF000000000000C5
:101D20000000400240023EFC0100000000000000F4
:101D30000000600080008000400040002000200083
:101D40000000000000000000000000000000000093
:101D50000000000000000000000000000000000083
:101D60000000000000000000000000000000000073
:101D70000000000F80380FFE380F80380000000090
:101D80000000000000000000000000000000010052
:101D9000000600000C0000380000310000060000C2
:101DA0000C000038000030000000000000000000BF
:101DB00061800067F807F980006180006180006140
:101DC000800061800067F807F980006180000000F2
:101DD00000000000000001C0E003E0F0063008044D
:101DE00018081FFFFE040E080787F00381E00000BB
:101DF0000000000001F000060C00040408060C704E
:101E000001F9C0000E00003BE000EC1807080804D0
:101E10000C180003E00000000001E00007F003F8E8
:101E200018041C0804170807E1D003C0E00023B021
:101E3000003C080020080000100000000000000125
:101E400000003100003200001C0000000000000013
:101E50000000000000000000000000000000000082
:101E60000000000000000000000000000000000072
:101E70007F0001FFC00780F00C0018100004200054
:101E8000020000000000002000021000040C0018F6
:101E90000780F001FFC0007F00000000000000008C
:101EA000000000000000000000000000420000668A
:101EB00000006600003C0000180003FFC00018008E
:101EC000003C0000660000660000420000000000C8
:101ED000080000080000080000080000080001FFDA
:101EE000C00008000008000008000008000008000A
:101EF00000000000000100003100003200001C0062
:101F000000000000000000000000000000000000D1
:101F100000000000000000000800000800000800A9
:101F20000008000008000008000008000008000089
:101F30000800000800000000000000000000000091
:101F400038000038000038000000000000000000E9
:101F50000000000000000000000000000000000081
:101F6000000600001C000070000180000E00003818
:101F70000000C0000700001C00003000000000004E
:101F8000000000007F8001FFE0038070060018045D
:101F9000000804000806001803807001FFE0007FBD
:101FA000800000000000000000000100080100089F
:101FB00001000803FFF807FFF80000080000080010
:101FC000000800000000000000000001C03802C04E
:101FD00058040098040118040218040418061C1878
:101FE00003F81801E0F80000000000000000000104
:101FF000C0E003C0F004000804080804080806183C
:102000000803F41801E7F00001E000000000000000
:10201000000000000300000D00001100006100003E
:10202000810803010807FFF80FFFF800010800010D
:10203000080000000000000000E007FCD0060808CF
:10204000061008061008061008061838060FF006D5
:1020500007C0000000000000000000003F8001FFFA
:10206000E003843002081804100804100804100863
:10207000071810030FF00007C00000000000000068
:10208000000003C0000700000600000600F8060775
:10209000F806180006E00007000006000000000037
:1020A00000000001E1E003F7F00634100418080412
:1020B0001808040C08040C0806161803F3F001C1F4
:1020C000E000000000000000F80003FC30030638C8
:1020D0000402080402080402080404100308F001C2
:1020E000FFC0007F000000000000000000000000B2
:1020F00000000000000000007038007038007038E8
:1021000000000000000000000000000000000000CF
:10211000000000000000000000000000301A003045
:102120001C00000000000000000000000000000093
:102130000000000000000008000014000022000061
:1021400041000080800100400200200400100800CF
:102150000800000000000000210000210000210014
:1021600000210000210000210000210000210000CA
:102170002100002100000000000000000000080015
:10218000080400100200200100400080800041008F
:1021900000220000140000080000000000000003FE
:1021A000C00004C000040000080038080F38080808
:1021B000380810000C300007E00003C000000000E9
:1021C000000000003F8000FFE0038070020F100657
:1021D000708804C088048308047F8802C0900301CB
:1021E0002000FE400000080000180001F8003E0832
:1021F00001C20007020007E20000FE00001FC80045
:1022000001F800003800000804000807FFF807FF85
:10221000F804080804080804080804080806180850
:1022200003F41801E7F00001E000000000000000E6
:102230003F8001FFE00380700200180400080400E2
:10224000080400080400100600200780C0000000F9
:1022500004000807FFF807FFF8040008040008045A
:10226000000804001802001003807001FFE0007FE6
:102270008000000004000807FFF807FFF8040808C2
:10228000040808040808040808043E0804000806B6
:10229000001801006000000004000807FFF807FFB5
:1022A000F8040808040800040800040800043E00BC
:1022B0000600000600000180000000000000000091
:1022C0003F8001FFE003807006001804000804024C
:1022D000080402080203F00783F000020000020075
:1022E00004000807FFF807FFF804080800080000CA
:1022F000080000080000080004080807FFF807FFAE
:10230000F8040008000000000000040008040008B1
:1023100004000807FFF807FFF80400080400080499
:10232000000800000000000000000000000600009F
:102330000700000104000104000104000307FFFE80
:1023400007FFFC040000040000040000040008076C
:10235000FFF807FFF8040C08001800003E0004C74F
:10236000800503C80600F8040038040018000008BF
:1023700004000807FFF807FFF80400080000080041
:102380000008000008000008000008000018000015
:102390006000000004000807FFF807800807FC0041
:1023A000007FC00003F80007C0007800078008071E
:1023B000FFF807FFF804000804000807FFF807000B
:1023C0000803C00000E000003800001E0000070005
:1023D0000001C00400F007FFF80400000000000046
:1023E0007F8001FFE00380700600180400080400ED
:1023F0000806001803003001FFE0007F80000000A5
:1024000004000807FFF807FFF804040804040004A8
:102410000400040400040400060C0003F80001F0AA
:1024200000000000000000007F8001FFE0038070DA
:102430000600880400880400C806003C03003E0132
:10244000FFE6007F8400000004000807FFF807FF94
:10245000F8040808040800040C00040F00040BC072
:102460000610F003F03801E0080000080000000149
:10247000E0F803F030063010041808041808040CC3
:1024800008040C080206180207F00781E0000000AB
:10249000018000060000040000040000040008079A
:1024A000FFF807FFF804000804000004000006001D
:1024B0000001800004000007FFE007FFF00400189F
:1024C00000000800000800000800000800000804E0
:1024D000001007FFE004000004000006000007E011
:1024E0000007FE00041FE00001F80000380001E0D2
:1024F000043E0007C00006000004000004000007BE
:10250000E00007FFC0041FF80007C007F80007FF3E
:1025100080043FF80007C004F80007000004000032
:1025200000000004000806001807C07805F1C80084
:102530003E00001F800463E80780F80600180400CE
:102540000800000004000006000007800007E00803
:10255000047C08001FF80007F800180804E00807CA
:102560000000060000040000000000010008060052
:10257000380400F80403E8040F08047C0805F00898
:1025800007C00807001804006000000000000000F9
:1025900000000000000000000000003FFFFE2000DF
:1025A00002200002200002200002200002000000A1
:1025B00000000000000008000007000000C000004C
:1025C00038000006000001C000003000000E0000CE
:1025D00001000000000000000000200002200002B6
:1025E0002000022000022000023FFFFE0000000049
:1025F00000000000000000000000000000000000DB
:102600000008000010000030000020000030000032
:1026100010000008000000000000000000000100A1
:1026200000010000010000010000010000010000A5
:102630000100000100000100000100000100000194
:10264000000000000000000000200000200000103A
:10265000000010000000000000000000000000006A
:10266000000000000000000000F00019F8001B1836
:10267000002208002608002408002410003FF8006B
:102680001FF800000800001800000004000007FF09
:10269000F80FFFF0001818001008002008002008AC
:1026A000003018001FF0000FC00000000000000004
:1026B00007C0001FF000183000200800200800208C
:1026C00008003C08001C1000006000000000000032
:1026D0000000000007C0001FF000381800200800AC
:1026E000200800200804101007FFF80FFFF000007A
:1026F000100000000000000000000007C0001FF0F4
:1027000000123000221800220800220800320800BF
:102710001E10000E2000000000000000200000201D
:102720000800200801FFF803FFF80620080420082D
:102730000420080720000300000000000000000043
:10274000000E000E6E001FF30031B10020B100201A
:10275000B1003191001F13002E1E00200E0030002A
:1027600000000004000807FFF80FFFF80010080041
:102770002000002000002008003FF8001FF80000A3
:1027800008000000000000000000002008002008F1
:10279000002008063FF8063FF80000080000080087
:1027A0000008000000000000000000000000000021
:1027B00003000003002001002001002003063FFE6B
:1027C000063FFC00000000000000000000000004C4
:1027D000000807FFF80FFFF8000188000300002F32
:1027E000C00038F800203800200800000800000071
:1027F00000000000000004000804000804000807AE
:10280000FFF80FFFF80000080000080000080000B3
:1028100000000000002008003FF8003FF80010080A
:10282000002000003FF8003FF800100800200000E2
:102830003FF8003FF8000008000000002008003FBB
:10284000F8003FF8001008001000002000002008E9
:10285000003FF8001FF80000080000000000000022
:1028600007C0000FF00018300030080020080020DA
:1028700008003008001830000FF00007C00000000A
:10288000000000002001003FFF003FFF001011008A
:102890002009002008002008003038001FF0000F39
:1028A000C00000000000000007C0001FF000381842
:1028B000002008002008002009001011001FFF0060
:1028C0003FFF000001000000002008002008002059
:1028D00008003FF8003FF800080800100800200832
:1028E0000020000030000030000000000000000068
:1028F0000000000C78001E18003308002308002197
:10290000080021880021980030F0003860000000A5
:1029100000000000200000200000200000FFF00365
:10292000FFF8002008002008002008000030000008
:1029300000000000000000002000003FF0007FF8D1
:10294000000018000008000008002010003FF800F8
:102950007FF00000100000000000000020000030A8
:1029600000003C00003F800023F000007800007071
:10297000002380003C000030000020000020000008
:102980003C00003FE00023F80000E0002700003E8C
:1029900000003FE00021F80001E0003E00002000C0
:1029A000000000002008002008003838003E6800C1
:1029B00027800003C8002CF80038380020180020B9
:1029C00008000000000000002000003003003C016F
:1029D000003F830023EC000070002380003C0000D7
:1029E000200000200000000000000000000000386F
:1029F000080020380020F80023E8002F88003E0857
:102A000000380800201800007000000000000000DE
:102A1000000000000000000000000000080000149A
:102A2000001FF7FC3000062000020000000000003C
:102A30000000000000000000000000000000000096
:102A40000000FFFFFF000000000000000000000089
:102A5000000000000000000000002000023000061E
:102A60001FF7FC0014000008000000000000000038
:102A700000000000000000000000001800006000DE
:102A8000004000004000002000001000000800008E
:102A90000400000400000C00001000000000000012
:102AA000000000000102030406070809CC2A000800
:102AB00000000020681300006C010008E42B0008EF
:102AC00068130020D80800003C1200084A20015A70
:102AD000FF0811100880804020100C032008030C10
:102AE000102040808022FC22FF3008F01010FF10E0
:102AF00010F0258740300F1A1F161B081009293BBC
:102B0000300C24F4545454FF545556F40412FF204E
:102B10000C080B1969090B49897D0B082A08013B30
:102B200009FA07190F2C404041013A7F0643404003
:102B30004BC080014BFC84080336C0C03CFF7F4083
:102B4000014AFF07043E40FF7F034A7F700373FC86
:102B5000F86CFFFE02018BFFFF0B0268036C1F1F66
:102B600004017BFFFF0B02741F038C7F3F07FFF8FC
:102B7000F8F0F0702001E60214801AFF0109122C0F
:102B800009132D01FF01C0EDFFFFFE06011AFF0131
:102B9000F915391603FF070201D10C12FFFFFF14CC
:102BA00009101509151601FF01C1EDFFFFFF1801FE
:102BB0001914091015391601FF01D204120201017E
:102BC0001AFF01011209122A01FF01D71AFF0101A0
:102BD000FF01FD05FF1F1F0F0F01E03201821013DF
:042BE00024F40000D9
:04000005080000ED02
:00000001FF
