:020000040800F2
:100000001004002001010008F70900088109000818
:10001000F50900086D010008650D000800000000EA
:100020000000000000000000000000000F0D0008AC
:100030006F010008000000000D0D0008110D000800
:100040001B0100081B0100081B0100081B01000820
:100050001B0100081B0100081B0100081B01000810
:100060001B0100081B0100081B0100081B01000800
:100070001B0100081B0100081B0100081B010008F0
:100080001B0100081B0100081B0100081B010008E0
:100090001B0100081B0100081B0100081B010008D0
:1000A0001B0100081B0100081B0100081B010008C0
:1000B0001B0100081B0100081B0100081B010008B0
:1000C0001B0100081B0100081B0100081B010008A0
:1000D0001B0100081B0100081B0100081B01000890
:1000E0001B0100081B0100081B010008DFF80CD0F1
:1000F00000F02AF800480047A50D00081004002071
:100100000648804706480047FEE7FEE7FEE7FEE7B1
:10011000FEE7FEE7FEE7FEE7FEE7FEE7630D000809
:10012000ED000008D2B201E000F8012B491EFBD21D
:1001300070470022F6E710B513460A4604461946F2
:10014000FFF7F0FF204610BD064C074D06E0E068C3
:1001500040F0010394E8070098471034AC42F6D30E
:10016000FFF7C8FF5015000870150008FEE770473C
:1001700070B5044600F004F90546601C02D004483E
:100180000078044400F0FCF8401BA042FAD370BD94
:10019000000000202DE9F84FDFF8B891002409F1A4
:1001A000040A0AF1040B23460F270BF1040EC9E0E1
:1001B0000125A5402A40AA427DD1674ED1F804C04E
:1001C000ACEB0608B44532D014DCBCF1030F3AD0D6
:1001D00009DCBCF1000F2AD0BCF1010F1CD0BCF12E
:1001E000020F31D11DE0BCF1110F17D0BCF1120F7D
:1001F0002AD119E0B8F5881F19D006DCB8F5803F80
:1002000015D0B8F5801F1FD111E0B8F5001F0ED032
:10021000B8F5041F18D10AE0CB6815E0CB681B1DA8
:1002200012E0CB6808330FE0CB680C330CE08B682E
:100230002BB1012B4FF0080303D0456104E00423E8
:1002400002E0056100E00023FF2A01D8064601E034
:1002500000F104064FEA840501D9A5F12005D6F87E
:10026000008007FA05FC28EA0C0803FA05F548EABD
:100270000508C6F800804D68ED0062D5374DAE69BF
:1002800046F00106AE61AD6924F0030605F00105F4
:100290000095334D06EB050CDCF80850A607360F29
:1002A00007FA06F825EA0805DFF8B880404503D1CB
:1002B0004FF0000817E044E0DFF8AC80404502D181
:1002C0004FF001080FE0DFF8A480404502D14FF065
:1002D000020808E0DFF89880404502D14FF003089B
:1002E00001E04FF0040808FA06F848EA0508CCF8DF
:1002F00008804D68D9F80060ED034D4601D51643DE
:1003000000E096432E604D68DAF80060AD03554674
:1003100001D5164300E096432E604D68DBF800607F
:10032000ED025D4601D5164300E096432E604D6810
:10033000DEF80060AD02754601D5164300E0964335
:100340002E60641C0D682A46E5407FF431AFBDE89D
:10035000F88F00000004014000001110001002405E
:100360000000014000080140000C01400010014065
:10037000001401400AB1016170470904FBE7000065
:100380000148806870470000000000200248816832
:10039000027811448160704700000020074810B5C2
:1003A000016841F010010160032000F067F80020AF
:1003B00000F006F800F024F8002010BD00200240F4
:1003C00070B50D4D04464FF47A712878B1FBF0F00A
:1003D0000A490968B1FBF0F000F0BEFA48B9102CE8
:1003E00007D200222146501E00F028F800206C6041
:1003F00070BD012070BD0000000000200C00002036
:100400000C4808B5816941F001018161816901F001
:1004100001010091C16941F08051C161C06900F0E2
:10042000805000900448416821F0E06141F0007183
:10043000416008BD0010024000000140F0B40E4BC6
:100440001B680C46C3F30223C3F10705042D00D932
:100450000425191D072901D2002300E0DB1E012617
:1004600006FA05F1491E214099409E40761E16402D
:100470003143F0BC00F077BC0CED00E0064900F021
:10048000070208684FF6FF03184040EA0220034ABB
:1004900010430860704700000CED00E00000FA0512
:1004A0002DE9F0470F46050061D0434E306800F05B
:1004B0000700B84209D2306820F0070038433060A6
:1004C000306800F00700B84251D128683B4C8107E2
:1004D00012D5400703D5606840F4E060606028787A
:1004E000000703D5606840F4605060606068A968E8
:1004F00020F0F000084360602878C00728D06868C2
:10050000012810D02168022810D0890700292EDA8E
:10051000616821F0030101436160FFF731FF80460C
:1005200041F288390DE021688903EFE78901EDE7A1
:10053000FFF726FFA0EB0801494502D90320BDE8DB
:10054000F0876068696800F00C00B0EB810FEFD1B4
:10055000306800F00700B8420BD9306820F007007F
:1005600038433060306800F00700B84201D0012005
:10057000E5E72878400705D56068E96820F4E06081
:10058000084360602878000706D56068296920F470
:10059000605040EAC100606000F018F86168084AE5
:1005A000C1F30311515CC840064908600648006861
:1005B000FFF706FF0020C2E70020024000100240C3
:1005C000401500080C0000200400002012A185B096
:1005D0000FC98DE80F0014A0144A006804905168F8
:1005E000134801F00C03042B10D0082B0ED1C1F3DB
:1005F0008343C9031DF803000AD5516804AAC1F357
:100600004041515C0A4A5043B0FBF1F005B07047DD
:1006100008494843FAE700000203040506070809F1
:100620000A0B0C0D0E0F101001020000001002400A
:1006300000127A0000093D002DE9F84F040070D047
:100640002078C04DC00749D06868C0F381000128F8
:1006500007D06868C0F38100022809D16868C00328
:1006600006D52868800339D560680028E7D035E0D2
:100670006068B0F5803F0BD010B1B0F5A02F11D05D
:10068000286820F480302860286820F4802002E068
:10069000286840F480302860606890B1FFF770FEF1
:1006A00006460AE0286840F480202860F0E700BF92
:1006B000FFF766FE801B642873D828688003F7D58F
:1006C0000CE0FFF75DFE064605E000BFFFF758FEB1
:1006D000801B6428F0D828688003F7D420789A4ECD
:1006E00080074FF001094FF0000839D5686810F015
:1006F0000C0F07D06868C0F38100022809D1686830
:10070000C00306D42868800714D52069012808D1C1
:1007100010E02069B0B1C6F80090FFF731FE07463F
:1007200005E00AE1FFF72CFEC01B0228C4D82868A8
:100730008007F7D52868616920F0F80040EAC10019
:1007400028600DE0C6F80080FFF71AFE074604E0B7
:10075000FFF716FEC01B022823D828688007F7D4AD
:10076000207800072CD57948A169D9B1C0F800904C
:10077000FFF706FE074604E0FFF702FEC01B022853
:100780000FD8686A8007F7D571484FF4FA510068AE
:10079000B0FBF1F0009000BF0098411E0091FAD22A
:1007A0000EE080E0C0F80080FFF7EAFD074604E0B5
:1007B000FFF7E6FDC01B022875D8686A8007F7D4EA
:1007C0002078400760D5E8690027C00008D4E869B0
:1007D00040F08050E861E869012700F08050009007
:1007E0005C480168C90513D40168834641F48071EF
:1007F0000160FFF7C5FD824606E000BFFFF7C0FDC0
:10080000A0EB0A0064284ED8DBF80000C005F5D53F
:10081000E06801280AD008B1052813D0286A20F022
:1008200001002862286A20F0040002E0286A40F0F3
:1008300001002862E06841F2883B98B1FFF7A0FD13
:1008400082460BE0286A40F004002862EEE700BF11
:10085000FFF796FDA0EB0A0159455AD8286A800790
:10086000F6D50CE0FFF78CFD824605E0FFF788FD2A
:10087000A0EB0A0159454CD8286A8007F6D41FB16D
:10088000E86920F08050E861E06988B36968C1F3E5
:100890008101022944D00228C6F8608004D0FFF705
:1008A0006FFD044638E034E0FFF76AFD074604E0D8
:1008B000FFF766FDC01B02282BD828688001F7D4FB
:1008C000206AB0F5803F05D16868A16820F4003047
:1008D00008436860D4E908010843696821F4741189
:1008E00008436860C6F86090FFF74AFD044606E0DA
:1008F00025E000BFFFF744FD001B022809D8286847
:100900008001F7D51BE000BFFFF73AFD001B02286E
:1009100002D90320BDE8F88F28688001F4D40EE0E6
:100920000128F7D06868226A00F48031914204D12E
:10093000616A00F47010884201D00120EAE70020CB
:10094000E8E70000001002400000424280044242FA
:100950000C0000200070004010B5401EB0F1807FF8
:1009600001D3012010BD4FF0E02460610F2160171A
:1009700000F0F9F90020A06107202061002010BDDF
:10098000FEE7000070B586B000241848009401947A
:1009900002940394816941F020018161816901F031
:1009A00020010491816941F008018161816901F0B0
:1009B00008010491816941F00401816180690C4E54
:1009C00000F004004FF470450490002229463046A0
:1009D000FFF7D0FC01200095CDE90104032003902E
:1009E00069463046FFF7D6FB06B070BD00100240E6
:1009F000000C0140FEE7704770B5002404F1B00020
:100A0000C0B2002100F04CF90021022000F048F9AA
:100A10000021102000F044F900250121002000F001
:100A20003FF96D1CEDB2802DF7D3641CE4B2082CA5
:100A3000E4D370BD2DE9F043664885B0816941F08B
:100A400008018161806901244FF48046CDE900648A
:100A500000F0080003250294CDE90350DFF87891F7
:100A600069464846FFF796FB6703CDE9007469467F
:100A70004846CDE90245FFF78DFB4FF40048CDE92C
:100A8000008469464846CDE90245FFF783FB012211
:100A900031464846FFF76EFC012239464846FFF7CB
:100AA00069FC012241464846FFF764FC0122140319
:100AB00021464846FFF75EFC6420FFF759FB002201
:100AC00021464846FFF756FC6420FFF751FB012200
:100AD00021464846FFF74EFC0021AE2000F0E0F82A
:100AE0000021022000F0DCF80021102000F0D8F8EE
:100AF0000021402000F0D4F80021812000F0D0F83F
:100B00000021CF2000F0CCF80021A12000F0C8F88F
:100B10000021C82000F0C4F80021A62000F0C0F891
:100B20000021A82000F0BCF800213F2000F0B8F818
:100B30000021D32000F0B4F80021084600F0B0F8FE
:100B40000021D52000F0ACF80021802000F0A8F8AA
:100B50000021D92000F0A4F80021F12000F0A0F835
:100B60000021DA2000F09CF80021122000F098F813
:100B70000021DB2000F094F80021402000F090F8E4
:100B80000021202000F08CF80021022000F088F8DD
:100B900000218D2000F084F80021142000F080F85E
:100BA0000021A42000F07CF80021A62000F078F8B5
:100BB0000021AF2000F074F80021AF2000F070F8A1
:100BC000FFF71AFF0021084600F008F805B0BDE85D
:100BD000F083000000100240000C014010B50446F4
:100BE000B031C8B2002100F05BF8102040EA1410C8
:100BF000002100F055F804F00F00BDE8104040F06F
:100C00000100002100F04CB82DE9F041203A002409
:100C10000D468046D7B27F2803D900208D1C804620
:100C2000EDB22946FFF7DAFF0F4E00BF04EB0710C5
:100C30000121305C00F034F8641CE4B2082CF5D3D8
:100C40006D1CE9B24046FFF7C9FF002404EB071012
:100C500030440121007A00F023F8641CE4B2082C2F
:100C6000F4D3BDE8F0810000D00D00082DE9F0417B
:100C700017460E46044600250CE031462046FFF795
:100C8000C3FF0834E4B2782C02D90024B61CF6B2B3
:100C90006D1CEDB27A5D002AEFD1BDE8F081000055
:100CA0002DE9F047184E05464FF4804909B101225D
:100CB00000E0002249463046FFF75CFB00244FF479
:100CC00000484FF40057002239463046FFF752FBE8
:100CD000280601D5012200E0002241463046FFF7F8
:100CE00049FB012239463046FFF744FB6806641C85
:100CF000050EE4B2082CE6D349463046BDE8F0477D
:100D00000122FFF737BB0000000C0140704770471D
:100D1000FFF73CBB30B58FB028216846FFF709FAD2
:100D200014210AA8FFF705FA01210804CDE90010F3
:100D30000024029402250491CDE907504FF4E010FD
:100D400009906846FFF778FC0F20CDE90A05680294
:100D5000CDE90C4002210AA80E94FFF7A1FB0FB0C9
:100D600030BD7047FEE70907090E002804DB00F1DB
:100D7000E02080F80014704700F00F0000F1E02040
:100D800080F8141D704702E008C8121F08C1002A2D
:100D9000FAD170477047002001E001C1121F002AFC
:100DA000FBD17047FFF7FAFAFFF7B4FFFFF7EAFD50
:100DB000FFF740FE002102A20846FFF757FFF9E7C0
:100DC00068656C6C6F20776F726C64202100000086
:100DD0000000000000000000000000000000000013
:100DE000000000F8000000000000003330000000A8
:100DF00000100C06100C06000000000000000000AF
:100E000040C07840C0784000043F04043F04040020
:100E1000007088FC08300000001820FF211E000030
:100E2000F008F000E018000000211C031E211E0045
:100E300000F00888700000001E21232419272110CB
:100E400010160E000000000000000000000000006E
:100E5000000000E018040200000000071820400015
:100E600000020418E0000000004020180700000005
:100E7000404080F0804040000202010F0102020069
:100E8000000000F0000000000101011F010101004D
:100E9000000000000000000080B0700000000000B2
:100EA000000000000000000000010101010101013B
:100EB00000000000000000000030300000000000D2
:100EC00000000000806018040060180601000000A7
:100ED00000E010080810E000000F102020100F00A4
:100EE000001010F8000000000020203F202000002B
:100EF0000070080808887000003028242221300083
:100F000000300888884830000018202020110E008A
:100F10000000C02010F8000000070424243F240033
:100F200000F80888880808000019212020110E0008
:100F300000E0108888180000000F112020110E001A
:100F400000380808C83808000000003F0000000012
:100F50000070880808887000001C222121221C00D3
:100F600000E010080810E0000000312222110F00FC
:100F7000000000C0C0000000000000303000000091
:100F80000000008000000000000080600000000001
:100F9000000080402010080000010204081020001A
:100FA0004040404040404000040404040404040065
:100FB00000081020408000000020100804020100FA
:100FC000007048080808F0000000003036010000FA
:100FD000C030C828E810E0000718272423140B00AD
:100FE0000000C038E0000000203C23020227382027
:100FF00008F8888888700000203F202020110E000B
:10100000C030080808083800071820202010080001
:1010100008F808080810E000203F202020100F00EA
:1010200008F88888E8081000203F202023201800B6
:1010300008F88888E8081000203F2000030000001E
:10104000C03008080838000007182020221E0200BF
:1010500008F808000008F808203F210101213F207E
:10106000000808F8080800000020203F20200000A9
:1010700000000808F8080800C08080807F00000099
:1010800008F888C028180800203F200126382000D2
:1010900008F8080000000000203F20202020300039
:1010A00008F8F800F8F80800203F003F003F200053
:1010B00008F830C00008F808203F200007183F005B
:1010C000E01008080810E0000F10202020100F008A
:1010D00008F808080808F000203F2101010100007D
:1010E000E01008080810E0000F18242438504F00C2
:1010F00008F8888888887000203F2000030C302082
:1011000000708808080838000038202121221C00BF
:10111000180808F8080818000000203F2000000008
:1011200008F808000008F808001F202020201F00F1
:101130000878880000C83808000007380E01000051
:10114000F80800F80008F800033C0700073C03001B
:10115000081868808068180820302C03032C302081
:101160000838C800C83808000000203F20000000F0
:1011700010080808C8380800203826212020180048
:10118000000000FE020202000000007F404040001C
:10119000000C30C000000000000000010638C00054
:1011A00000020202FE000000004040407F000000FC
:1011B0000000040202020400000000000000000021
:1011C000000000000000000080808080808080801F
:1011D0000002020400000000000000000000000007
:1011E00000008080808000000019242222223F20FD
:1011F00008F8008080000000003F112020110E0040
:101200000000008080800000000E112020201100CE
:10121000000000808088F800000E112020103F2080
:101220000000808080800000001F22222222130004
:10123000008080F0888888180020203F202000004F
:101240000000808080808000006B94949493600004
:1012500008F8008080800000203F210000203F200F
:1012600000809898000000000020203F202000000F
:10127000000000809898000000C08080807F0000FF
:1012800008F8000080808000203F24022D302000DC
:10129000000808F8000000000020203F2020000087
:1012A0008080808080808000203F20003F20003FA1
:1012B0008080008080800000203F210000203F20AF
:1012C0000000808080800000001F202020201F0060
:1012D000808000808000000080FFA12020110E008F
:1012E0000000008080808000000E112020A0FF8080
:1012F000808080008080800020203F21200001002D
:101300000000808080808000003324242424190081
:10131000008080E0808000000000001F202000008E
:101320008080000000808000001F202020103F20CF
:10133000808080000080808000010E30080601005F
:1013400080800080008080800F300C030C300F0004
:1013500000808000808080000020312E0E3120002F
:10136000808080000080808080818E70180601005F
:1013700000808080808080000021302C222130007D
:1013800000000000807C020200000000003F40409E
:1013900000000000FF00000000000000FF0000004F
:1013A0000002027C800000000040403F000000007E
:1013B0000006010102020404000000000000000019
:1013C0000000F010101010FF10101010F0000000BE
:1013D000000000000000000000000000000000000D
:1013E00000000F04040404FF040404040F000000C0
:1013F00000000000000000000000000000000000ED
:1014000000FE0212929292F29292921202FE00005A
:1014100000000000000000000000000000000000CC
:1014200000FF40484848484F484A4C4840FF0000A9
:1014300000000000000000000000000000000000AC
:1014400020242424FE23222020FF20222CA0200060
:10145000000000000000000000000000000000008C
:10146000000848847F02414020130C142241F800F8
:10147000000000000000000000000000000000006C
:1014800080642C342424EC322222322E23A26000E9
:10149000000000000000000000000000000000004C
:1014A0000041219189874D552525554D818080002A
:1014B000000000000000000000000000000000002C
:1014C000008060F8074020180F08C8080828180096
:1014D000000000000000000000000000000000000C
:1014E000010000FF00100C0340807F00010618007F
:1014F00000000000000000000000000000000000EC
:1015000000FC0404FC00C2BA828282FE8282800057
:1015100000000000000000000000000000000000CB
:10152000000F04040F2010080442817F0000000017
:1015300000000000000000000000000000000000AB
:101540000000000000000000010203040607080973
:10155000701500080000002010000000860D000833
:10156000801500081000002000040000960D0008FF
:101570000100000010000000000000000024F40042
:04000005080000ED02
:00000001FF
